{
  "address": "0xD168373274DAc9fDa397843D917557A24e2c2507",
  "abi": [
    {
      "inputs": [
        {
          "internalType": "string",
          "name": "_name",
          "type": "string"
        },
        {
          "internalType": "string",
          "name": "_symbol",
          "type": "string"
        }
      ],
      "stateMutability": "nonpayable",
      "type": "constructor"
    },
    {
      "anonymous": false,
      "inputs": [
        {
          "indexed": true,
          "internalType": "address",
          "name": "strat",
          "type": "address"
        },
        {
          "indexed": true,
          "internalType": "uint256",
          "name": "pid",
          "type": "uint256"
        }
      ],
      "name": "AddPool",
      "type": "event"
    },
    {
      "anonymous": false,
      "inputs": [
        {
          "indexed": true,
          "internalType": "address",
          "name": "owner",
          "type": "address"
        },
        {
          "indexed": true,
          "internalType": "address",
          "name": "spender",
          "type": "address"
        },
        {
          "indexed": false,
          "internalType": "uint256",
          "name": "value",
          "type": "uint256"
        }
      ],
      "name": "Approval",
      "type": "event"
    },
    {
      "anonymous": false,
      "inputs": [
        {
          "indexed": true,
          "internalType": "address",
          "name": "user",
          "type": "address"
        },
        {
          "indexed": true,
          "internalType": "uint256",
          "name": "pid",
          "type": "uint256"
        },
        {
          "indexed": false,
          "internalType": "uint256",
          "name": "amount",
          "type": "uint256"
        }
      ],
      "name": "Deposit",
      "type": "event"
    },
    {
      "anonymous": false,
      "inputs": [
        {
          "indexed": true,
          "internalType": "address",
          "name": "operator",
          "type": "address"
        },
        {
          "indexed": true,
          "internalType": "bool",
          "name": "status",
          "type": "bool"
        }
      ],
      "name": "OperatorUpdated",
      "type": "event"
    },
    {
      "anonymous": false,
      "inputs": [
        {
          "indexed": true,
          "internalType": "address",
          "name": "previousOwner",
          "type": "address"
        },
        {
          "indexed": true,
          "internalType": "address",
          "name": "newOwner",
          "type": "address"
        }
      ],
      "name": "OwnershipTransferred",
      "type": "event"
    },
    {
      "anonymous": false,
      "inputs": [
        {
          "indexed": true,
          "internalType": "address",
          "name": "user",
          "type": "address"
        }
      ],
      "name": "ResetAllowance",
      "type": "event"
    },
    {
      "anonymous": false,
      "inputs": [
        {
          "indexed": true,
          "internalType": "address",
          "name": "user",
          "type": "address"
        },
        {
          "indexed": true,
          "internalType": "uint256",
          "name": "pid",
          "type": "uint256"
        }
      ],
      "name": "ResetSingleAllowance",
      "type": "event"
    },
    {
      "anonymous": false,
      "inputs": [
        {
          "indexed": true,
          "internalType": "address",
          "name": "from",
          "type": "address"
        },
        {
          "indexed": true,
          "internalType": "address",
          "name": "to",
          "type": "address"
        },
        {
          "indexed": false,
          "internalType": "uint256",
          "name": "value",
          "type": "uint256"
        }
      ],
      "name": "Transfer",
      "type": "event"
    },
    {
      "anonymous": false,
      "inputs": [
        {
          "indexed": true,
          "internalType": "address",
          "name": "user",
          "type": "address"
        },
        {
          "indexed": true,
          "internalType": "uint256",
          "name": "pid",
          "type": "uint256"
        },
        {
          "indexed": false,
          "internalType": "uint256",
          "name": "amount",
          "type": "uint256"
        }
      ],
      "name": "Withdraw",
      "type": "event"
    },
    {
      "inputs": [
        {
          "internalType": "address",
          "name": "_strat",
          "type": "address"
        }
      ],
      "name": "addPool",
      "outputs": [],
      "stateMutability": "nonpayable",
      "type": "function"
    },
    {
      "inputs": [
        {
          "internalType": "address",
          "name": "owner",
          "type": "address"
        },
        {
          "internalType": "address",
          "name": "spender",
          "type": "address"
        }
      ],
      "name": "allowance",
      "outputs": [
        {
          "internalType": "uint256",
          "name": "",
          "type": "uint256"
        }
      ],
      "stateMutability": "view",
      "type": "function"
    },
    {
      "inputs": [
        {
          "internalType": "address",
          "name": "spender",
          "type": "address"
        },
        {
          "internalType": "uint256",
          "name": "amount",
          "type": "uint256"
        }
      ],
      "name": "approve",
      "outputs": [
        {
          "internalType": "bool",
          "name": "",
          "type": "bool"
        }
      ],
      "stateMutability": "nonpayable",
      "type": "function"
    },
    {
      "inputs": [
        {
          "internalType": "address",
          "name": "account",
          "type": "address"
        }
      ],
      "name": "balanceOf",
      "outputs": [
        {
          "internalType": "uint256",
          "name": "",
          "type": "uint256"
        }
      ],
      "stateMutability": "view",
      "type": "function"
    },
    {
      "inputs": [],
      "name": "decimals",
      "outputs": [
        {
          "internalType": "uint8",
          "name": "",
          "type": "uint8"
        }
      ],
      "stateMutability": "view",
      "type": "function"
    },
    {
      "inputs": [
        {
          "internalType": "address",
          "name": "spender",
          "type": "address"
        },
        {
          "internalType": "uint256",
          "name": "subtractedValue",
          "type": "uint256"
        }
      ],
      "name": "decreaseAllowance",
      "outputs": [
        {
          "internalType": "bool",
          "name": "",
          "type": "bool"
        }
      ],
      "stateMutability": "nonpayable",
      "type": "function"
    },
    {
      "inputs": [
        {
          "internalType": "uint256",
          "name": "_pid",
          "type": "uint256"
        },
        {
          "internalType": "uint256",
          "name": "_wantAmt",
          "type": "uint256"
        }
      ],
      "name": "deposit",
      "outputs": [],
      "stateMutability": "nonpayable",
      "type": "function"
    },
    {
      "inputs": [
        {
          "internalType": "uint256",
          "name": "_pid",
          "type": "uint256"
        },
        {
          "internalType": "uint256",
          "name": "_wantAmt",
          "type": "uint256"
        },
        {
          "internalType": "address",
          "name": "_to",
          "type": "address"
        }
      ],
      "name": "depositTo",
      "outputs": [],
      "stateMutability": "nonpayable",
      "type": "function"
    },
    {
      "inputs": [
        {
          "internalType": "address",
          "name": "spender",
          "type": "address"
        },
        {
          "internalType": "uint256",
          "name": "addedValue",
          "type": "uint256"
        }
      ],
      "name": "increaseAllowance",
      "outputs": [
        {
          "internalType": "bool",
          "name": "",
          "type": "bool"
        }
      ],
      "stateMutability": "nonpayable",
      "type": "function"
    },
    {
      "inputs": [],
      "name": "name",
      "outputs": [
        {
          "internalType": "string",
          "name": "",
          "type": "string"
        }
      ],
      "stateMutability": "view",
      "type": "function"
    },
    {
      "inputs": [
        {
          "internalType": "address",
          "name": "",
          "type": "address"
        }
      ],
      "name": "operators",
      "outputs": [
        {
          "internalType": "bool",
          "name": "",
          "type": "bool"
        }
      ],
      "stateMutability": "view",
      "type": "function"
    },
    {
      "inputs": [],
      "name": "owner",
      "outputs": [
        {
          "internalType": "address",
          "name": "",
          "type": "address"
        }
      ],
      "stateMutability": "view",
      "type": "function"
    },
    {
      "inputs": [
        {
          "internalType": "uint256",
          "name": "",
          "type": "uint256"
        }
      ],
      "name": "poolInfo",
      "outputs": [
        {
          "internalType": "contract IERC20",
          "name": "want",
          "type": "address"
        },
        {
          "internalType": "address",
          "name": "strat",
          "type": "address"
        }
      ],
      "stateMutability": "view",
      "type": "function"
    },
    {
      "inputs": [],
      "name": "poolLength",
      "outputs": [
        {
          "internalType": "uint256",
          "name": "",
          "type": "uint256"
        }
      ],
      "stateMutability": "view",
      "type": "function"
    },
    {
      "inputs": [],
      "name": "renounceOwnership",
      "outputs": [],
      "stateMutability": "nonpayable",
      "type": "function"
    },
    {
      "inputs": [],
      "name": "resetAllowances",
      "outputs": [],
      "stateMutability": "nonpayable",
      "type": "function"
    },
    {
      "inputs": [
        {
          "internalType": "uint256",
          "name": "_pid",
          "type": "uint256"
        }
      ],
      "name": "resetSingleAllowance",
      "outputs": [],
      "stateMutability": "nonpayable",
      "type": "function"
    },
    {
      "inputs": [],
      "name": "symbol",
      "outputs": [
        {
          "internalType": "string",
          "name": "",
          "type": "string"
        }
      ],
      "stateMutability": "view",
      "type": "function"
    },
    {
      "inputs": [],
      "name": "totalSupply",
      "outputs": [
        {
          "internalType": "uint256",
          "name": "",
          "type": "uint256"
        }
      ],
      "stateMutability": "view",
      "type": "function"
    },
    {
      "inputs": [
        {
          "internalType": "address",
          "name": "recipient",
          "type": "address"
        },
        {
          "internalType": "uint256",
          "name": "amount",
          "type": "uint256"
        }
      ],
      "name": "transfer",
      "outputs": [
        {
          "internalType": "bool",
          "name": "",
          "type": "bool"
        }
      ],
      "stateMutability": "nonpayable",
      "type": "function"
    },
    {
      "inputs": [
        {
          "internalType": "address",
          "name": "sender",
          "type": "address"
        },
        {
          "internalType": "address",
          "name": "recipient",
          "type": "address"
        },
        {
          "internalType": "uint256",
          "name": "amount",
          "type": "uint256"
        }
      ],
      "name": "transferFrom",
      "outputs": [
        {
          "internalType": "bool",
          "name": "",
          "type": "bool"
        }
      ],
      "stateMutability": "nonpayable",
      "type": "function"
    },
    {
      "inputs": [
        {
          "internalType": "address",
          "name": "newOwner",
          "type": "address"
        }
      ],
      "name": "transferOwnership",
      "outputs": [],
      "stateMutability": "nonpayable",
      "type": "function"
    },
    {
      "inputs": [
        {
          "internalType": "address",
          "name": "_operator",
          "type": "address"
        },
        {
          "internalType": "bool",
          "name": "_status",
          "type": "bool"
        }
      ],
      "name": "updateOperator",
      "outputs": [],
      "stateMutability": "nonpayable",
      "type": "function"
    },
    {
      "inputs": [
        {
          "internalType": "uint256",
          "name": "",
          "type": "uint256"
        },
        {
          "internalType": "address",
          "name": "",
          "type": "address"
        }
      ],
      "name": "userInfo",
      "outputs": [
        {
          "internalType": "uint256",
          "name": "shares",
          "type": "uint256"
        }
      ],
      "stateMutability": "view",
      "type": "function"
    },
    {
      "inputs": [
        {
          "internalType": "uint256",
          "name": "_pid",
          "type": "uint256"
        },
        {
          "internalType": "uint256",
          "name": "_wantAmt",
          "type": "uint256"
        }
      ],
      "name": "withdraw",
      "outputs": [],
      "stateMutability": "nonpayable",
      "type": "function"
    },
    {
      "inputs": [
        {
          "internalType": "uint256",
          "name": "_pid",
          "type": "uint256"
        }
      ],
      "name": "withdrawAll",
      "outputs": [],
      "stateMutability": "nonpayable",
      "type": "function"
    },
    {
      "inputs": [
        {
          "internalType": "uint256",
          "name": "_pid",
          "type": "uint256"
        },
        {
          "internalType": "uint256",
          "name": "_wantAmt",
          "type": "uint256"
        },
        {
          "internalType": "address",
          "name": "_to",
          "type": "address"
        }
      ],
      "name": "withdrawTo",
      "outputs": [],
      "stateMutability": "nonpayable",
      "type": "function"
    }
  ],
  "transactionHash": "0x827ddf74d5f8e8ba58bd72539c34353a19bf1e5cc73a330b0cbf8edaf223a86e",
  "args": [
    "BB VaultChef",
    "BBBaseXToken"
  ],
  "numDeployments": 1,
  "solcInputHash": "f496af49b6c29d8156becbe3e8c7c35a",
  "bytecode": "0x60806040523480156200001157600080fd5b50604051620028cb380380620028cb833981016040819052620000349162000229565b81816200004a6200004462000084565b62000088565b60018055815162000063906006906020850190620000d8565b50805162000079906007906020840190620000d8565b5050505050620002e3565b3390565b600080546001600160a01b038381166001600160a01b0319831681178455604051919092169283917f8be0079c531659141344cd1fd0a4f28419497f9722a3daafe3b4186f6b6457e09190a35050565b828054620000e69062000290565b90600052602060002090601f0160209004810192826200010a576000855562000155565b82601f106200012557805160ff191683800117855562000155565b8280016001018555821562000155579182015b828111156200015557825182559160200191906001019062000138565b506200016392915062000167565b5090565b5b8082111562000163576000815560010162000168565b600082601f8301126200018f578081fd5b81516001600160401b0380821115620001ac57620001ac620002cd565b6040516020601f8401601f1916820181018381118382101715620001d457620001d4620002cd565b6040528382528584018101871015620001eb578485fd5b8492505b838310156200020e5785830181015182840182015291820191620001ef565b838311156200021f57848185840101525b5095945050505050565b600080604083850312156200023c578182fd5b82516001600160401b038082111562000253578384fd5b62000261868387016200017e565b9350602085015191508082111562000277578283fd5b5062000286858286016200017e565b9150509250929050565b600281046001821680620002a557607f821691505b60208210811415620002c757634e487b7160e01b600052602260045260246000fd5b50919050565b634e487b7160e01b600052604160045260246000fd5b6125d880620002f36000396000f3fe608060405234801561001057600080fd5b50600436106101b95760003560e01c80636d44a3b2116100f95780639a269e0c11610097578063d914cd4b11610071578063d914cd4b14610375578063dd62ed3e14610388578063e2bbb1581461039b578063f2fde38b146103ae576101b9565b80639a269e0c1461033c578063a457c2d71461034f578063a9059cbb14610362576101b9565b80638da5cb5b116100d35780638da5cb5b146102f957806393f1a40b1461030e578063958e2d311461032157806395d89b4114610334576101b9565b80636d44a3b2146102cb57806370a08231146102de578063715018a6146102f1576101b9565b806318160ddd11610166578063313ce56711610140578063313ce567146102885780633505b09f1461029d57806339509351146102a5578063441a3e70146102b8576101b9565b806318160ddd1461025a57806323b872dd1461026257806323e1ad7d14610275576101b9565b806313e7c9d81161019757806313e7c9d81461021157806314cd70e4146102245780631526fe2714610239576101b9565b806306fdde03146101be578063081e3eda146101dc578063095ea7b3146101f1575b600080fd5b6101c66103c1565b6040516101d39190611e9e565b60405180910390f35b6101e4610453565b6040516101d39190612462565b6102046101ff366004611d18565b610459565b6040516101d39190611e93565b61020461021f366004611c3b565b610476565b610237610232366004611dd4565b61048b565b005b61024c610247366004611d5f565b610502565b6040516101d3929190611e3c565b6101e461053b565b610204610270366004611cab565b610541565b610237610283366004611d5f565b6105d3565b6102906106ca565b6040516101d3919061246b565b6102376106cf565b6102046102b3366004611d18565b6107e4565b6102376102c6366004611db3565b610838565b6102376102d9366004611ceb565b61087d565b6101e46102ec366004611c3b565b610910565b61023761092b565b610301610976565b6040516101d39190611e28565b6101e461031c366004611d8f565b610985565b61023761032f366004611d5f565b6109a2565b6101c66109de565b61023761034a366004611dd4565b6109ed565b61020461035d366004611d18565b610a52565b610204610370366004611d18565b610acb565b610237610383366004611c3b565b610adf565b6101e4610396366004611c73565b610dc5565b6102376103a9366004611db3565b610df0565b6102376103bc366004611c3b565b610e2d565b6060600680546103d090612513565b80601f01602080910402602001604051908101604052809291908181526020018280546103fc90612513565b80156104495780601f1061041e57610100808354040283529160200191610449565b820191906000526020600020905b81548152906001019060200180831161042c57829003601f168201915b5050505050905090565b60085490565b600061046d610466610e9e565b8484610ea2565b50600192915050565b60026020526000908152604090205460ff1681565b600260015414156104b75760405162461bcd60e51b81526004016104ae9061230e565b60405180910390fd5b60026001819055336000908152602091909152604090205460ff166104ee5760405162461bcd60e51b81526004016104ae906123a2565b6104f9838383610f56565b50506001805550565b6008818154811061051257600080fd5b6000918252602090912060029091020180546001909101546001600160a01b0391821692501682565b60055490565b600061054e8484846112b7565b6001600160a01b03841660009081526004602052604081208161056f610e9e565b6001600160a01b03166001600160a01b03168152602001908152602001600020549050828110156105b25760405162461bcd60e51b81526004016104ae9061210f565b6105c6856105be610e9e565b858403610ea2565b60019150505b9392505050565b6105db610e9e565b6001600160a01b03166105ec610976565b6001600160a01b0316146106125760405162461bcd60e51b81526004016104ae90612157565b60006008828154811061063557634e487b7160e01b600052603260045260246000fd5b6000918252602082206001600290920201908101548154919350610668926001600160a01b0392831692909116906113e1565b60018101548154610688916001600160a01b03918216911660001961150d565b81610691610976565b6001600160a01b03167f2c9bf56b214176331295043f946fec75ef4734c978c591c6d08fe7d45f9132d860405160405180910390a35050565b601290565b6106d7610e9e565b6001600160a01b03166106e8610976565b6001600160a01b03161461070e5760405162461bcd60e51b81526004016104ae90612157565b60005b6008548110156107a45760006008828154811061073e57634e487b7160e01b600052603260045260246000fd5b6000918252602082206001600290920201908101548154919350610771926001600160a01b0392831692909116906113e1565b60018101548154610791916001600160a01b03918216911660001961150d565b508061079c8161254e565b915050610711565b506107ad610976565b6001600160a01b03167fe9c2678ff6b16779478ca0ff73f9face6adeb21fffd1b2ffd6ee79794c51294b60405160405180910390a2565b600061046d6107f1610e9e565b8484600460006107ff610e9e565b6001600160a01b03908116825260208083019390935260409182016000908120918b16815292529020546108339190612479565b610ea2565b6002600154141561085b5760405162461bcd60e51b81526004016104ae9061230e565b600260015561086b828233610f56565b61087533826115b9565b505060018055565b610885610e9e565b6001600160a01b0316610896610976565b6001600160a01b0316146108bc5760405162461bcd60e51b81526004016104ae90612157565b6001600160a01b038216600081815260026020526040808220805460ff191685151590811790915590519092917f966c160e1c4dbc7df8d69af4ace01e9297c3cf016397b7914971f2fbfa32672d91a35050565b6001600160a01b031660009081526003602052604090205490565b610933610e9e565b6001600160a01b0316610944610976565b6001600160a01b03161461096a5760405162461bcd60e51b81526004016104ae90612157565b61097460006116aa565b565b6000546001600160a01b031690565b600960209081526000928352604080842090915290825290205481565b600260015414156109c55760405162461bcd60e51b81526004016104ae9061230e565b60026001556109d78160001933610f56565b5060018055565b6060600780546103d090612513565b60026001541415610a105760405162461bcd60e51b81526004016104ae9061230e565b60026001819055336000908152602091909152604090205460ff16610a475760405162461bcd60e51b81526004016104ae906123a2565b6104f9838383611707565b60008060046000610a61610e9e565b6001600160a01b0390811682526020808301939093526040918201600090812091881681529252902054905082811015610aad5760405162461bcd60e51b81526004016104ae906123e6565b610ac1610ab8610e9e565b85858403610ea2565b5060019392505050565b600061046d610ad8610e9e565b84846112b7565b610ae7610e9e565b6001600160a01b0316610af8610976565b6001600160a01b031614610b1e5760405162461bcd60e51b81526004016104ae90612157565b60026001541415610b415760405162461bcd60e51b81526004016104ae9061230e565b60026001556001600160a01b0381166000908152600a602052604090205460ff1615610b7f5760405162461bcd60e51b81526004016104ae906120d8565b806001600160a01b031663e7a036796040518163ffffffff1660e01b815260040160206040518083038186803b158015610bb857600080fd5b505afa158015610bcc573d6000803e3d6000fd5b505050506040513d601f19601f82011682018060405250810190610bf09190611c57565b6001600160a01b031663dd62ed3e30836040518363ffffffff1660e01b8152600401610c1d929190611e3c565b60206040518083038186803b158015610c3557600080fd5b505afa158015610c49573d6000803e3d6000fd5b505050506040513d601f19601f82011682018060405250810190610c6d9190611d77565b5060086040518060400160405280836001600160a01b031663e7a036796040518163ffffffff1660e01b815260040160206040518083038186803b158015610cb457600080fd5b505afa158015610cc8573d6000803e3d6000fd5b505050506040513d601f19601f82011682018060405250810190610cec9190611c57565b6001600160a01b039081168252848116602092830181905284546001818101875560009687528487208651600290930201805492851673ffffffffffffffffffffffffffffffffffffffff199384161781559585015195810180549690941695909116949094179091558352600a90526040909120805460ff191682179055600854610d7b91610283916124d0565b600854610d8a906001906124d0565b6040516001600160a01b038316907ff5d252583cd714facf6cafc09e6ed202a7cb8f2ceec3d3b9102b12b0fe4d4be690600090a35060018055565b6001600160a01b03918216600090815260046020908152604080832093909416825291909152205490565b60026001541415610e135760405162461bcd60e51b81526004016104ae9061230e565b6002600155610e23828233611707565b610875338261198a565b610e35610e9e565b6001600160a01b0316610e46610976565b6001600160a01b031614610e6c5760405162461bcd60e51b81526004016104ae90612157565b6001600160a01b038116610e925760405162461bcd60e51b81526004016104ae90611f56565b610e9b816116aa565b50565b3390565b6001600160a01b038316610ec85760405162461bcd60e51b81526004016104ae90612249565b6001600160a01b038216610eee5760405162461bcd60e51b81526004016104ae90611f9c565b6001600160a01b0380841660008181526004602090815260408083209487168084529490915290819020849055517f8c5be1e5ebec7d5bd14f71427d1e84f3dd0314c0f7b2291e5b200ac8c7c3b92590610f49908590612462565b60405180910390a3505050565b600060088481548110610f7957634e487b7160e01b600052603260045260246000fd5b600091825260208083208784526009825260408085203386528352808520600294909402909101600181015482516342da4eb360e01b815292519196509394936001600160a01b0316926342da4eb39260048082019391829003018186803b158015610fe457600080fd5b505afa158015610ff8573d6000803e3d6000fd5b505050506040513d601f19601f8201168201806040525081019061101c9190611d77565b905060008360010160009054906101000a90046001600160a01b03166001600160a01b03166344a3955e6040518163ffffffff1660e01b815260040160206040518083038186803b15801561107057600080fd5b505afa158015611084573d6000803e3d6000fd5b505050506040513d601f19601f820116820180604052508101906110a89190611d77565b83549091506110c95760405162461bcd60e51b81526004016104ae90611fde565b600081116110e95760405162461bcd60e51b81526004016104ae906121cd565b6000818385600001546110fc91906124b1565b6111069190612491565b905080871115611114578096505b861561126b576001850154604051632e1a7d4d60e01b81526000916001600160a01b031690632e1a7d4d9061114d908b90600401612462565b602060405180830381600087803b15801561116757600080fd5b505af115801561117b573d6000803e3d6000fd5b505050506040513d601f19601f8201168201806040525081019061119f9190611d77565b85549091508111156111b457600085556111c4565b84546111c19082906124d0565b85555b85546040516370a0823160e01b81526000916001600160a01b0316906370a08231906111f4903090600401611e28565b60206040518083038186803b15801561120c57600080fd5b505afa158015611220573d6000803e3d6000fd5b505050506040513d601f19601f820116820180604052508101906112449190611d77565b905088811015611252578098505b8654611268906001600160a01b0316898b611a56565b50505b87336001600160a01b03167ff279e6a1f5e320cca91135676d9cb6e44ca8a08c0b88342bcdb1144f6511b568896040516112a59190612462565b60405180910390a35050505050505050565b6001600160a01b0383166112dd5760405162461bcd60e51b81526004016104ae90612204565b6001600160a01b0382166113035760405162461bcd60e51b81526004016104ae90611ed1565b61130e838383611508565b6001600160a01b038316600090815260036020526040902054818110156113475760405162461bcd60e51b81526004016104ae90612015565b6001600160a01b0380851660009081526003602052604080822085850390559185168152908120805484929061137e908490612479565b92505081905550826001600160a01b0316846001600160a01b03167fddf252ad1be2c89b69c2b068fc378daa952ba7f163c4a11628f55a4df523b3ef846040516113c89190612462565b60405180910390a36113db848484611508565b50505050565b8015806114695750604051636eb1769f60e11b81526001600160a01b0384169063dd62ed3e906114179030908690600401611e3c565b60206040518083038186803b15801561142f57600080fd5b505afa158015611443573d6000803e3d6000fd5b505050506040513d601f19601f820116820180604052508101906114679190611d77565b155b6114855760405162461bcd60e51b81526004016104ae90612345565b6115088363095ea7b360e01b84846040516024016114a4929190611e7a565b60408051601f198184030181529190526020810180517bffffffffffffffffffffffffffffffffffffffffffffffffffffffff167fffffffff0000000000000000000000000000000000000000000000000000000090931692909217909152611a75565b505050565b600081846001600160a01b031663dd62ed3e30866040518363ffffffff1660e01b815260040161153e929190611e3c565b60206040518083038186803b15801561155657600080fd5b505afa15801561156a573d6000803e3d6000fd5b505050506040513d601f19601f8201168201806040525081019061158e9190611d77565b6115989190612479565b90506113db8463095ea7b360e01b85846040516024016114a4929190611e7a565b6001600160a01b0382166115df5760405162461bcd60e51b81526004016104ae9061218c565b6115eb82600083611508565b6001600160a01b038216600090815260036020526040902054818110156116245760405162461bcd60e51b81526004016104ae90611f14565b6001600160a01b03831660009081526003602052604081208383039055600580548492906116539084906124d0565b90915550506040516000906001600160a01b038516907fddf252ad1be2c89b69c2b068fc378daa952ba7f163c4a11628f55a4df523b3ef90611696908690612462565b60405180910390a361150883600084611508565b600080546001600160a01b0383811673ffffffffffffffffffffffffffffffffffffffff19831681178455604051919092169283917f8be0079c531659141344cd1fd0a4f28419497f9722a3daafe3b4186f6b6457e09190a35050565b60006008848154811061172a57634e487b7160e01b600052603260045260246000fd5b600091825260208083208784526009825260408085206001600160a01b038816865290925292206002909102909101915083156119415781546040516370a0823160e01b81526001600160a01b039091169060009082906370a0823190611795903090600401611e28565b60206040518083038186803b1580156117ad57600080fd5b505afa1580156117c1573d6000803e3d6000fd5b505050506040513d601f19601f820116820180604052508101906117e59190611d77565b90506117fc6001600160a01b038316333089611b04565b6040516370a0823160e01b815281906001600160a01b038416906370a082319061182a903090600401611e28565b60206040518083038186803b15801561184257600080fd5b505afa158015611856573d6000803e3d6000fd5b505050506040513d601f19601f8201168201806040525081019061187a9190611d77565b61188491906124d0565b9550600086116118a65760405162461bcd60e51b81526004016104ae9061205b565b600184015460405163b6b55f2560e01b81526000916001600160a01b03169063b6b55f25906118d9908a90600401612462565b602060405180830381600087803b1580156118f357600080fd5b505af1158015611907573d6000803e3d6000fd5b505050506040513d601f19601f8201168201806040525081019061192b9190611d77565b845490915061193b908290612479565b84555050505b84836001600160a01b03167f90890809c654f11d6e72a28fa60149770a0d11ec6c92319d6ceb2bb0a4ea1a158660405161197b9190612462565b60405180910390a35050505050565b6001600160a01b0382166119b05760405162461bcd60e51b81526004016104ae9061242b565b6119bc60008383611508565b80600560008282546119ce9190612479565b90915550506001600160a01b038216600090815260036020526040812080548392906119fb908490612479565b90915550506040516001600160a01b038316906000907fddf252ad1be2c89b69c2b068fc378daa952ba7f163c4a11628f55a4df523b3ef90611a3e908590612462565b60405180910390a3611a5260008383611508565b5050565b6115088363a9059cbb60e01b84846040516024016114a4929190611e7a565b6000611aca826040518060400160405280602081526020017f5361666545524332303a206c6f772d6c6576656c2063616c6c206661696c6564815250856001600160a01b0316611b259092919063ffffffff16565b8051909150156115085780806020019051810190611ae89190611d43565b6115085760405162461bcd60e51b81526004016104ae906122c4565b6113db846323b872dd60e01b8585856040516024016114a493929190611e56565b6060611b348484600085611b3c565b949350505050565b606082471015611b5e5760405162461bcd60e51b81526004016104ae90612092565b611b6785611bfc565b611b835760405162461bcd60e51b81526004016104ae9061228d565b600080866001600160a01b03168587604051611b9f9190611e0c565b60006040518083038185875af1925050503d8060008114611bdc576040519150601f19603f3d011682016040523d82523d6000602084013e611be1565b606091505b5091509150611bf1828286611c02565b979650505050505050565b3b151590565b60608315611c115750816105cc565b825115611c215782518084602001fd5b8160405162461bcd60e51b81526004016104ae9190611e9e565b600060208284031215611c4c578081fd5b81356105cc8161257f565b600060208284031215611c68578081fd5b81516105cc8161257f565b60008060408385031215611c85578081fd5b8235611c908161257f565b91506020830135611ca08161257f565b809150509250929050565b600080600060608486031215611cbf578081fd5b8335611cca8161257f565b92506020840135611cda8161257f565b929592945050506040919091013590565b60008060408385031215611cfd578182fd5b8235611d088161257f565b91506020830135611ca081612594565b60008060408385031215611d2a578182fd5b8235611d358161257f565b946020939093013593505050565b600060208284031215611d54578081fd5b81516105cc81612594565b600060208284031215611d70578081fd5b5035919050565b600060208284031215611d88578081fd5b5051919050565b60008060408385031215611da1578182fd5b823591506020830135611ca08161257f565b60008060408385031215611dc5578182fd5b50508035926020909101359150565b600080600060608486031215611de8578283fd5b83359250602084013591506040840135611e018161257f565b809150509250925092565b60008251611e1e8184602087016124e7565b9190910192915050565b6001600160a01b0391909116815260200190565b6001600160a01b0392831681529116602082015260400190565b6001600160a01b039384168152919092166020820152604081019190915260600190565b6001600160a01b03929092168252602082015260400190565b901515815260200190565b6000602082528251806020840152611ebd8160408501602087016124e7565b601f01601f19169190910160400192915050565b60208082526023908201527f45524332303a207472616e7366657220746f20746865207a65726f206164647260408201526265737360e81b606082015260800190565b60208082526022908201527f45524332303a206275726e20616d6f756e7420657863656564732062616c616e604082015261636560f01b606082015260800190565b60208082526026908201527f4f776e61626c653a206e6577206f776e657220697320746865207a65726f206160408201526564647265737360d01b606082015260800190565b60208082526022908201527f45524332303a20617070726f766520746f20746865207a65726f206164647265604082015261737360f01b606082015260800190565b60208082526010908201527f757365722e736861726573206973203000000000000000000000000000000000604082015260600190565b60208082526026908201527f45524332303a207472616e7366657220616d6f756e7420657863656564732062604082015265616c616e636560d01b606082015260800190565b60208082526019908201527f5765206f6e6c792061636365707420616d6f756e74203e203000000000000000604082015260600190565b60208082526026908201527f416464726573733a20696e73756666696369656e742062616c616e636520666f6040820152651c8818d85b1b60d21b606082015260800190565b60208082526011908201527f4578697374696e67207374726174656779000000000000000000000000000000604082015260600190565b60208082526028908201527f45524332303a207472616e7366657220616d6f756e74206578636565647320616040820152676c6c6f77616e636560c01b606082015260800190565b6020808252818101527f4f776e61626c653a2063616c6c6572206973206e6f7420746865206f776e6572604082015260600190565b60208082526021908201527f45524332303a206275726e2066726f6d20746865207a65726f206164647265736040820152607360f81b606082015260800190565b60208082526010908201527f736861726573546f74616c206973203000000000000000000000000000000000604082015260600190565b60208082526025908201527f45524332303a207472616e736665722066726f6d20746865207a65726f206164604082015264647265737360d81b606082015260800190565b60208082526024908201527f45524332303a20617070726f76652066726f6d20746865207a65726f206164646040820152637265737360e01b606082015260800190565b6020808252601d908201527f416464726573733a2063616c6c20746f206e6f6e2d636f6e7472616374000000604082015260600190565b6020808252602a908201527f5361666545524332303a204552433230206f7065726174696f6e20646964206e6040820152691bdd081cdd58d8d9595960b21b606082015260800190565b6020808252601f908201527f5265656e7472616e637947756172643a207265656e7472616e742063616c6c00604082015260600190565b60208082526036908201527f5361666545524332303a20617070726f76652066726f6d206e6f6e2d7a65726f60408201527f20746f206e6f6e2d7a65726f20616c6c6f77616e636500000000000000000000606082015260800190565b60208082526024908201527f4f70657261746f723a2063616c6c6572206973206e6f7420746865206f70657260408201526330ba37b960e11b606082015260800190565b60208082526025908201527f45524332303a2064656372656173656420616c6c6f77616e63652062656c6f77604082015264207a65726f60d81b606082015260800190565b6020808252601f908201527f45524332303a206d696e7420746f20746865207a65726f206164647265737300604082015260600190565b90815260200190565b60ff91909116815260200190565b6000821982111561248c5761248c612569565b500190565b6000826124ac57634e487b7160e01b81526012600452602481fd5b500490565b60008160001904831182151516156124cb576124cb612569565b500290565b6000828210156124e2576124e2612569565b500390565b60005b838110156125025781810151838201526020016124ea565b838111156113db5750506000910152565b60028104600182168061252757607f821691505b6020821081141561254857634e487b7160e01b600052602260045260246000fd5b50919050565b600060001982141561256257612562612569565b5060010190565b634e487b7160e01b600052601160045260246000fd5b6001600160a01b0381168114610e9b57600080fd5b8015158114610e9b57600080fdfea26469706673582212207b6bb458574121264c21df6d256eb671a19c6b919f514e56cc82463dfa1282a264736f6c63430008000033",
  "devdoc": {
    "kind": "dev",
    "methods": {
      "addPool(address)": {
        "details": "Add a new want to the pool. Can only be called by the owner."
      },
      "allowance(address,address)": {
        "details": "See {IERC20-allowance}."
      },
      "approve(address,uint256)": {
        "details": "See {IERC20-approve}. Requirements: - `spender` cannot be the zero address."
      },
      "balanceOf(address)": {
        "details": "See {IERC20-balanceOf}."
      },
      "decimals()": {
        "details": "Returns the number of decimals used to get its user representation. For example, if `decimals` equals `2`, a balance of `505` tokens should be displayed to a user as `5.05` (`505 / 10 ** 2`). Tokens usually opt for a value of 18, imitating the relationship between Ether and Wei. This is the value {ERC20} uses, unless this function is overridden; NOTE: This information is only used for _display_ purposes: it in no way affects any of the arithmetic of the contract, including {IERC20-balanceOf} and {IERC20-transfer}."
      },
      "decreaseAllowance(address,uint256)": {
        "details": "Atomically decreases the allowance granted to `spender` by the caller. This is an alternative to {approve} that can be used as a mitigation for problems described in {IERC20-approve}. Emits an {Approval} event indicating the updated allowance. Requirements: - `spender` cannot be the zero address. - `spender` must have allowance for the caller of at least `subtractedValue`."
      },
      "increaseAllowance(address,uint256)": {
        "details": "Atomically increases the allowance granted to `spender` by the caller. This is an alternative to {approve} that can be used as a mitigation for problems described in {IERC20-approve}. Emits an {Approval} event indicating the updated allowance. Requirements: - `spender` cannot be the zero address."
      },
      "name()": {
        "details": "Returns the name of the token."
      },
      "owner()": {
        "details": "Returns the address of the current owner."
      },
      "renounceOwnership()": {
        "details": "Leaves the contract without owner. It will not be possible to call `onlyOwner` functions anymore. Can only be called by the current owner. NOTE: Renouncing ownership will leave the contract without an owner, thereby removing any functionality that is only available to the owner."
      },
      "symbol()": {
        "details": "Returns the symbol of the token, usually a shorter version of the name."
      },
      "totalSupply()": {
        "details": "See {IERC20-totalSupply}."
      },
      "transfer(address,uint256)": {
        "details": "See {IERC20-transfer}. Requirements: - `recipient` cannot be the zero address. - the caller must have a balance of at least `amount`."
      },
      "transferFrom(address,address,uint256)": {
        "details": "See {IERC20-transferFrom}. Emits an {Approval} event indicating the updated allowance. This is not required by the EIP. See the note at the beginning of {ERC20}. Requirements: - `sender` and `recipient` cannot be the zero address. - `sender` must have a balance of at least `amount`. - the caller must have allowance for ``sender``'s tokens of at least `amount`."
      },
      "transferOwnership(address)": {
        "details": "Transfers ownership of the contract to a new account (`newOwner`). Can only be called by the current owner."
      }
    },
    "version": 1
  },
  "userdoc": {
    "kind": "user",
    "methods": {},
    "version": 1
  },
  "storageLayout": {
    "storage": [
      {
        "astId": 7,
        "contract": "contracts/vault/VaultChef.sol:VaultChef",
        "label": "_owner",
        "offset": 0,
        "slot": "0",
        "type": "t_address"
      },
      {
        "astId": 207,
        "contract": "contracts/vault/VaultChef.sol:VaultChef",
        "label": "_status",
        "offset": 0,
        "slot": "1",
        "type": "t_uint256"
      },
      {
        "astId": 3600,
        "contract": "contracts/vault/VaultChef.sol:VaultChef",
        "label": "operators",
        "offset": 0,
        "slot": "2",
        "type": "t_mapping(t_address,t_bool)"
      },
      {
        "astId": 252,
        "contract": "contracts/vault/VaultChef.sol:VaultChef",
        "label": "_balances",
        "offset": 0,
        "slot": "3",
        "type": "t_mapping(t_address,t_uint256)"
      },
      {
        "astId": 258,
        "contract": "contracts/vault/VaultChef.sol:VaultChef",
        "label": "_allowances",
        "offset": 0,
        "slot": "4",
        "type": "t_mapping(t_address,t_mapping(t_address,t_uint256))"
      },
      {
        "astId": 260,
        "contract": "contracts/vault/VaultChef.sol:VaultChef",
        "label": "_totalSupply",
        "offset": 0,
        "slot": "5",
        "type": "t_uint256"
      },
      {
        "astId": 262,
        "contract": "contracts/vault/VaultChef.sol:VaultChef",
        "label": "_name",
        "offset": 0,
        "slot": "6",
        "type": "t_string_storage"
      },
      {
        "astId": 264,
        "contract": "contracts/vault/VaultChef.sol:VaultChef",
        "label": "_symbol",
        "offset": 0,
        "slot": "7",
        "type": "t_string_storage"
      },
      {
        "astId": 5671,
        "contract": "contracts/vault/VaultChef.sol:VaultChef",
        "label": "poolInfo",
        "offset": 0,
        "slot": "8",
        "type": "t_array(t_struct(PoolInfo)5667_storage)dyn_storage"
      },
      {
        "astId": 5678,
        "contract": "contracts/vault/VaultChef.sol:VaultChef",
        "label": "userInfo",
        "offset": 0,
        "slot": "9",
        "type": "t_mapping(t_uint256,t_mapping(t_address,t_struct(UserInfo)5661_storage))"
      },
      {
        "astId": 5682,
        "contract": "contracts/vault/VaultChef.sol:VaultChef",
        "label": "strats",
        "offset": 0,
        "slot": "10",
        "type": "t_mapping(t_address,t_bool)"
      }
    ],
    "types": {
      "t_address": {
        "encoding": "inplace",
        "label": "address",
        "numberOfBytes": "20"
      },
      "t_array(t_struct(PoolInfo)5667_storage)dyn_storage": {
        "base": "t_struct(PoolInfo)5667_storage",
        "encoding": "dynamic_array",
        "label": "struct VaultChef.PoolInfo[]",
        "numberOfBytes": "32"
      },
      "t_bool": {
        "encoding": "inplace",
        "label": "bool",
        "numberOfBytes": "1"
      },
      "t_contract(IERC20)860": {
        "encoding": "inplace",
        "label": "contract IERC20",
        "numberOfBytes": "20"
      },
      "t_mapping(t_address,t_bool)": {
        "encoding": "mapping",
        "key": "t_address",
        "label": "mapping(address => bool)",
        "numberOfBytes": "32",
        "value": "t_bool"
      },
      "t_mapping(t_address,t_mapping(t_address,t_uint256))": {
        "encoding": "mapping",
        "key": "t_address",
        "label": "mapping(address => mapping(address => uint256))",
        "numberOfBytes": "32",
        "value": "t_mapping(t_address,t_uint256)"
      },
      "t_mapping(t_address,t_struct(UserInfo)5661_storage)": {
        "encoding": "mapping",
        "key": "t_address",
        "label": "mapping(address => struct VaultChef.UserInfo)",
        "numberOfBytes": "32",
        "value": "t_struct(UserInfo)5661_storage"
      },
      "t_mapping(t_address,t_uint256)": {
        "encoding": "mapping",
        "key": "t_address",
        "label": "mapping(address => uint256)",
        "numberOfBytes": "32",
        "value": "t_uint256"
      },
      "t_mapping(t_uint256,t_mapping(t_address,t_struct(UserInfo)5661_storage))": {
        "encoding": "mapping",
        "key": "t_uint256",
        "label": "mapping(uint256 => mapping(address => struct VaultChef.UserInfo))",
        "numberOfBytes": "32",
        "value": "t_mapping(t_address,t_struct(UserInfo)5661_storage)"
      },
      "t_string_storage": {
        "encoding": "bytes",
        "label": "string",
        "numberOfBytes": "32"
      },
      "t_struct(PoolInfo)5667_storage": {
        "encoding": "inplace",
        "label": "struct VaultChef.PoolInfo",
        "members": [
          {
            "astId": 5664,
            "contract": "contracts/vault/VaultChef.sol:VaultChef",
            "label": "want",
            "offset": 0,
            "slot": "0",
            "type": "t_contract(IERC20)860"
          },
          {
            "astId": 5666,
            "contract": "contracts/vault/VaultChef.sol:VaultChef",
            "label": "strat",
            "offset": 0,
            "slot": "1",
            "type": "t_address"
          }
        ],
        "numberOfBytes": "64"
      },
      "t_struct(UserInfo)5661_storage": {
        "encoding": "inplace",
        "label": "struct VaultChef.UserInfo",
        "members": [
          {
            "astId": 5660,
            "contract": "contracts/vault/VaultChef.sol:VaultChef",
            "label": "shares",
            "offset": 0,
            "slot": "0",
            "type": "t_uint256"
          }
        ],
        "numberOfBytes": "32"
      },
      "t_uint256": {
        "encoding": "inplace",
        "label": "uint256",
        "numberOfBytes": "32"
      }
    }
  }
}