{
  "address": "0x7FA7B4ed81B25FfB06ef330D1BD9ca4f454C565b",
  "abi": [
    {
      "inputs": [
        {
          "internalType": "address",
          "name": "_vaultChefAddress",
          "type": "address"
        },
        {
          "internalType": "uint256",
          "name": "_pid",
          "type": "uint256"
        },
        {
          "internalType": "address",
          "name": "_wantAddress",
          "type": "address"
        },
        {
          "internalType": "address",
          "name": "_gainedAddress",
          "type": "address"
        },
        {
          "internalType": "address[]",
          "name": "_gainedToWmaticPath",
          "type": "address[]"
        },
        {
          "internalType": "address[]",
          "name": "_gainedToBBankPath",
          "type": "address[]"
        },
        {
          "internalType": "address[]",
          "name": "_wmaticToBBankPath",
          "type": "address[]"
        },
        {
          "internalType": "address[]",
          "name": "_gainedToToken0Path",
          "type": "address[]"
        },
        {
          "internalType": "address[]",
          "name": "_gainedToToken1Path",
          "type": "address[]"
        },
        {
          "internalType": "address[]",
          "name": "_wmaticToToken0Path",
          "type": "address[]"
        },
        {
          "internalType": "address[]",
          "name": "_wmaticToToken1Path",
          "type": "address[]"
        }
      ],
      "stateMutability": "nonpayable",
      "type": "constructor"
    },
    {
      "anonymous": false,
      "inputs": [
        {
          "indexed": true,
          "internalType": "address",
          "name": "previousOwner",
          "type": "address"
        },
        {
          "indexed": true,
          "internalType": "address",
          "name": "newOwner",
          "type": "address"
        }
      ],
      "name": "OwnershipTransferred",
      "type": "event"
    },
    {
      "anonymous": false,
      "inputs": [
        {
          "indexed": false,
          "internalType": "address",
          "name": "account",
          "type": "address"
        }
      ],
      "name": "Paused",
      "type": "event"
    },
    {
      "anonymous": false,
      "inputs": [
        {
          "indexed": false,
          "internalType": "uint256",
          "name": "_controllerFee",
          "type": "uint256"
        },
        {
          "indexed": false,
          "internalType": "uint256",
          "name": "_rewardRate",
          "type": "uint256"
        },
        {
          "indexed": false,
          "internalType": "uint256",
          "name": "_buyBackRate",
          "type": "uint256"
        },
        {
          "indexed": false,
          "internalType": "uint256",
          "name": "_withdrawFeeFactor",
          "type": "uint256"
        },
        {
          "indexed": false,
          "internalType": "uint256",
          "name": "_slippageFactor",
          "type": "uint256"
        },
        {
          "indexed": false,
          "internalType": "address",
          "name": "_uniRouterAddress",
          "type": "address"
        }
      ],
      "name": "SetSettings",
      "type": "event"
    },
    {
      "anonymous": false,
      "inputs": [
        {
          "indexed": false,
          "internalType": "address",
          "name": "account",
          "type": "address"
        }
      ],
      "name": "Unpaused",
      "type": "event"
    },
    {
      "inputs": [],
      "name": "bbankAddress",
      "outputs": [
        {
          "internalType": "address",
          "name": "",
          "type": "address"
        }
      ],
      "stateMutability": "view",
      "type": "function"
    },
    {
      "inputs": [],
      "name": "buyBackAddress",
      "outputs": [
        {
          "internalType": "address",
          "name": "",
          "type": "address"
        }
      ],
      "stateMutability": "view",
      "type": "function"
    },
    {
      "inputs": [],
      "name": "buyBackRate",
      "outputs": [
        {
          "internalType": "uint256",
          "name": "",
          "type": "uint256"
        }
      ],
      "stateMutability": "view",
      "type": "function"
    },
    {
      "inputs": [],
      "name": "controllerFee",
      "outputs": [
        {
          "internalType": "uint256",
          "name": "",
          "type": "uint256"
        }
      ],
      "stateMutability": "view",
      "type": "function"
    },
    {
      "inputs": [],
      "name": "convertDustToGained",
      "outputs": [],
      "stateMutability": "nonpayable",
      "type": "function"
    },
    {
      "inputs": [
        {
          "internalType": "uint256",
          "name": "_wantAmt",
          "type": "uint256"
        }
      ],
      "name": "deposit",
      "outputs": [
        {
          "internalType": "uint256",
          "name": "",
          "type": "uint256"
        }
      ],
      "stateMutability": "nonpayable",
      "type": "function"
    },
    {
      "inputs": [],
      "name": "earn",
      "outputs": [],
      "stateMutability": "nonpayable",
      "type": "function"
    },
    {
      "inputs": [],
      "name": "emergencyPanic",
      "outputs": [],
      "stateMutability": "nonpayable",
      "type": "function"
    },
    {
      "inputs": [],
      "name": "feeAddress",
      "outputs": [
        {
          "internalType": "address",
          "name": "",
          "type": "address"
        }
      ],
      "stateMutability": "view",
      "type": "function"
    },
    {
      "inputs": [],
      "name": "feeMax",
      "outputs": [
        {
          "internalType": "uint256",
          "name": "",
          "type": "uint256"
        }
      ],
      "stateMutability": "view",
      "type": "function"
    },
    {
      "inputs": [],
      "name": "feeMaxTotal",
      "outputs": [
        {
          "internalType": "uint256",
          "name": "",
          "type": "uint256"
        }
      ],
      "stateMutability": "view",
      "type": "function"
    },
    {
      "inputs": [],
      "name": "gainedAddress",
      "outputs": [
        {
          "internalType": "address",
          "name": "",
          "type": "address"
        }
      ],
      "stateMutability": "view",
      "type": "function"
    },
    {
      "inputs": [
        {
          "internalType": "uint256",
          "name": "",
          "type": "uint256"
        }
      ],
      "name": "gainedToBBankPath",
      "outputs": [
        {
          "internalType": "address",
          "name": "",
          "type": "address"
        }
      ],
      "stateMutability": "view",
      "type": "function"
    },
    {
      "inputs": [
        {
          "internalType": "uint256",
          "name": "",
          "type": "uint256"
        }
      ],
      "name": "gainedToToken0Path",
      "outputs": [
        {
          "internalType": "address",
          "name": "",
          "type": "address"
        }
      ],
      "stateMutability": "view",
      "type": "function"
    },
    {
      "inputs": [
        {
          "internalType": "uint256",
          "name": "",
          "type": "uint256"
        }
      ],
      "name": "gainedToToken1Path",
      "outputs": [
        {
          "internalType": "address",
          "name": "",
          "type": "address"
        }
      ],
      "stateMutability": "view",
      "type": "function"
    },
    {
      "inputs": [
        {
          "internalType": "uint256",
          "name": "",
          "type": "uint256"
        }
      ],
      "name": "gainedToWmaticPath",
      "outputs": [
        {
          "internalType": "address",
          "name": "",
          "type": "address"
        }
      ],
      "stateMutability": "view",
      "type": "function"
    },
    {
      "inputs": [],
      "name": "govAddress",
      "outputs": [
        {
          "internalType": "address",
          "name": "",
          "type": "address"
        }
      ],
      "stateMutability": "view",
      "type": "function"
    },
    {
      "inputs": [],
      "name": "lastEarnBlock",
      "outputs": [
        {
          "internalType": "uint256",
          "name": "",
          "type": "uint256"
        }
      ],
      "stateMutability": "view",
      "type": "function"
    },
    {
      "inputs": [],
      "name": "owner",
      "outputs": [
        {
          "internalType": "address",
          "name": "",
          "type": "address"
        }
      ],
      "stateMutability": "view",
      "type": "function"
    },
    {
      "inputs": [],
      "name": "panic",
      "outputs": [],
      "stateMutability": "nonpayable",
      "type": "function"
    },
    {
      "inputs": [],
      "name": "pause",
      "outputs": [],
      "stateMutability": "nonpayable",
      "type": "function"
    },
    {
      "inputs": [],
      "name": "paused",
      "outputs": [
        {
          "internalType": "bool",
          "name": "",
          "type": "bool"
        }
      ],
      "stateMutability": "view",
      "type": "function"
    },
    {
      "inputs": [],
      "name": "pid",
      "outputs": [
        {
          "internalType": "uint256",
          "name": "",
          "type": "uint256"
        }
      ],
      "stateMutability": "view",
      "type": "function"
    },
    {
      "inputs": [],
      "name": "renounceOwnership",
      "outputs": [],
      "stateMutability": "nonpayable",
      "type": "function"
    },
    {
      "inputs": [],
      "name": "resetAllowances",
      "outputs": [],
      "stateMutability": "nonpayable",
      "type": "function"
    },
    {
      "inputs": [],
      "name": "rewardRate",
      "outputs": [
        {
          "internalType": "uint256",
          "name": "",
          "type": "uint256"
        }
      ],
      "stateMutability": "view",
      "type": "function"
    },
    {
      "inputs": [
        {
          "internalType": "address",
          "name": "_govAddress",
          "type": "address"
        }
      ],
      "name": "setGov",
      "outputs": [],
      "stateMutability": "nonpayable",
      "type": "function"
    },
    {
      "inputs": [
        {
          "internalType": "uint256",
          "name": "_controllerFee",
          "type": "uint256"
        },
        {
          "internalType": "uint256",
          "name": "_rewardRate",
          "type": "uint256"
        },
        {
          "internalType": "uint256",
          "name": "_buyBackRate",
          "type": "uint256"
        },
        {
          "internalType": "uint256",
          "name": "_withdrawFeeFactor",
          "type": "uint256"
        },
        {
          "internalType": "uint256",
          "name": "_slippageFactor",
          "type": "uint256"
        },
        {
          "internalType": "address",
          "name": "_uniRouterAddress",
          "type": "address"
        }
      ],
      "name": "setSettings",
      "outputs": [],
      "stateMutability": "nonpayable",
      "type": "function"
    },
    {
      "inputs": [],
      "name": "sharesTotal",
      "outputs": [
        {
          "internalType": "uint256",
          "name": "",
          "type": "uint256"
        }
      ],
      "stateMutability": "view",
      "type": "function"
    },
    {
      "inputs": [],
      "name": "slippageFactor",
      "outputs": [
        {
          "internalType": "uint256",
          "name": "",
          "type": "uint256"
        }
      ],
      "stateMutability": "view",
      "type": "function"
    },
    {
      "inputs": [],
      "name": "slippageFactorUL",
      "outputs": [
        {
          "internalType": "uint256",
          "name": "",
          "type": "uint256"
        }
      ],
      "stateMutability": "view",
      "type": "function"
    },
    {
      "inputs": [],
      "name": "sushiYieldAddress",
      "outputs": [
        {
          "internalType": "address",
          "name": "",
          "type": "address"
        }
      ],
      "stateMutability": "view",
      "type": "function"
    },
    {
      "inputs": [],
      "name": "token0Address",
      "outputs": [
        {
          "internalType": "address",
          "name": "",
          "type": "address"
        }
      ],
      "stateMutability": "view",
      "type": "function"
    },
    {
      "inputs": [
        {
          "internalType": "uint256",
          "name": "",
          "type": "uint256"
        }
      ],
      "name": "token0ToGainedPath",
      "outputs": [
        {
          "internalType": "address",
          "name": "",
          "type": "address"
        }
      ],
      "stateMutability": "view",
      "type": "function"
    },
    {
      "inputs": [],
      "name": "token1Address",
      "outputs": [
        {
          "internalType": "address",
          "name": "",
          "type": "address"
        }
      ],
      "stateMutability": "view",
      "type": "function"
    },
    {
      "inputs": [
        {
          "internalType": "uint256",
          "name": "",
          "type": "uint256"
        }
      ],
      "name": "token1ToGainedPath",
      "outputs": [
        {
          "internalType": "address",
          "name": "",
          "type": "address"
        }
      ],
      "stateMutability": "view",
      "type": "function"
    },
    {
      "inputs": [
        {
          "internalType": "address",
          "name": "newOwner",
          "type": "address"
        }
      ],
      "name": "transferOwnership",
      "outputs": [],
      "stateMutability": "nonpayable",
      "type": "function"
    },
    {
      "inputs": [],
      "name": "uniRouterAddress",
      "outputs": [
        {
          "internalType": "address",
          "name": "",
          "type": "address"
        }
      ],
      "stateMutability": "view",
      "type": "function"
    },
    {
      "inputs": [],
      "name": "unpanic",
      "outputs": [],
      "stateMutability": "nonpayable",
      "type": "function"
    },
    {
      "inputs": [],
      "name": "unpause",
      "outputs": [],
      "stateMutability": "nonpayable",
      "type": "function"
    },
    {
      "inputs": [],
      "name": "vaultChefAddress",
      "outputs": [
        {
          "internalType": "address",
          "name": "",
          "type": "address"
        }
      ],
      "stateMutability": "view",
      "type": "function"
    },
    {
      "inputs": [],
      "name": "vaultSharesTotal",
      "outputs": [
        {
          "internalType": "uint256",
          "name": "",
          "type": "uint256"
        }
      ],
      "stateMutability": "view",
      "type": "function"
    },
    {
      "inputs": [],
      "name": "wantAddress",
      "outputs": [
        {
          "internalType": "address",
          "name": "",
          "type": "address"
        }
      ],
      "stateMutability": "view",
      "type": "function"
    },
    {
      "inputs": [],
      "name": "wantLockedTotal",
      "outputs": [
        {
          "internalType": "uint256",
          "name": "",
          "type": "uint256"
        }
      ],
      "stateMutability": "view",
      "type": "function"
    },
    {
      "inputs": [
        {
          "internalType": "uint256",
          "name": "_wantAmt",
          "type": "uint256"
        }
      ],
      "name": "withdraw",
      "outputs": [
        {
          "internalType": "uint256",
          "name": "",
          "type": "uint256"
        }
      ],
      "stateMutability": "nonpayable",
      "type": "function"
    },
    {
      "inputs": [],
      "name": "withdrawFeeAddress",
      "outputs": [
        {
          "internalType": "address",
          "name": "",
          "type": "address"
        }
      ],
      "stateMutability": "view",
      "type": "function"
    },
    {
      "inputs": [],
      "name": "withdrawFeeFactor",
      "outputs": [
        {
          "internalType": "uint256",
          "name": "",
          "type": "uint256"
        }
      ],
      "stateMutability": "view",
      "type": "function"
    },
    {
      "inputs": [],
      "name": "withdrawFeeFactorLL",
      "outputs": [
        {
          "internalType": "uint256",
          "name": "",
          "type": "uint256"
        }
      ],
      "stateMutability": "view",
      "type": "function"
    },
    {
      "inputs": [],
      "name": "withdrawFeeFactorMax",
      "outputs": [
        {
          "internalType": "uint256",
          "name": "",
          "type": "uint256"
        }
      ],
      "stateMutability": "view",
      "type": "function"
    },
    {
      "inputs": [],
      "name": "wmaticAddress",
      "outputs": [
        {
          "internalType": "address",
          "name": "",
          "type": "address"
        }
      ],
      "stateMutability": "view",
      "type": "function"
    },
    {
      "inputs": [
        {
          "internalType": "uint256",
          "name": "",
          "type": "uint256"
        }
      ],
      "name": "wmaticToBBankPath",
      "outputs": [
        {
          "internalType": "address",
          "name": "",
          "type": "address"
        }
      ],
      "stateMutability": "view",
      "type": "function"
    },
    {
      "inputs": [
        {
          "internalType": "uint256",
          "name": "",
          "type": "uint256"
        }
      ],
      "name": "wmaticToToken0Path",
      "outputs": [
        {
          "internalType": "address",
          "name": "",
          "type": "address"
        }
      ],
      "stateMutability": "view",
      "type": "function"
    },
    {
      "inputs": [
        {
          "internalType": "uint256",
          "name": "",
          "type": "uint256"
        }
      ],
      "name": "wmaticToToken1Path",
      "outputs": [
        {
          "internalType": "address",
          "name": "",
          "type": "address"
        }
      ],
      "stateMutability": "view",
      "type": "function"
    },
    {
      "stateMutability": "payable",
      "type": "receive"
    }
  ],
  "transactionHash": "0x384c7202e93574b92a6f67ec909c9b6a9a8843c7a39a8d5a2092cb3435c1648f",
  "args": [
    "0xa0E206B80f20FBEf05CA077a2AF9eC02d0209d9c",
    3,
    "0x26ba46ba65b16e8870a1a546e13426cfe454e41b",
    "0xd1d34c82bb30a81cbd22c9000a95bea9dabdcc5c",
    [
      "0xADa17be1b58891d8e1FDA75F73f93152969F6fda",
      "0xc778417e063141139fce010982780140aa0cd5ab"
    ],
    [
      "0xd1d34c82bb30a81cbd22c9000a95bea9dabdcc5c",
      "0xADa17be1b58891d8e1FDA75F73f93152969F6fda"
    ],
    [
      "0xc778417e063141139fce010982780140aa0cd5ab",
      "0xADa17be1b58891d8e1FDA75F73f93152969F6fda"
    ],
    [
      "0xd1d34c82bb30a81cbd22c9000a95bea9dabdcc5c",
      "0xc7AD46e0b8a400Bb3C915120d284AafbA8fc4735"
    ],
    [
      "0xd1d34c82bb30a81cbd22c9000a95bea9dabdcc5c",
      "0x92153Bb4d23f750f7C03F931D3e06441c5EC0b4f"
    ],
    [
      "0xc778417e063141139fce010982780140aa0cd5ab",
      "0x92153Bb4d23f750f7C03F931D3e06441c5EC0b4f"
    ],
    [
      "0xc778417e063141139fce010982780140aa0cd5ab",
      "0x92153Bb4d23f750f7C03F931D3e06441c5EC0b4f"
    ]
  ],
  "numDeployments": 2,
  "solcInputHash": "f496af49b6c29d8156becbe3e8c7c35a",
  "bytecode": "0x6080604052600780546001600160a01b031990811673d81bdf78b3bc96ee1838fe4ee820145f8101bbe91790915560088054909116732b8406c07613490cf56b978b8d531fd7eb06658217905543600b556000600c8190556032600d55600e556101c2600f556127106010556103b66011553480156200007e57600080fd5b50604051620041bc380380620041bc833981016040819052620000a19162000b74565b620000b5620000af6200038f565b62000393565b600180819055506000600260006101000a81548160ff02191690831515021790555033600a60006101000a8154816001600160a01b0302191690836001600160a01b031602179055508a600960006101000a8154816001600160a01b0302191690836001600160a01b0316021790555088600260016101000a8154816001600160a01b0302191690836001600160a01b03160217905550600260019054906101000a90046001600160a01b03166001600160a01b0316630dfe16816040518163ffffffff1660e01b815260040160206040518083038186803b1580156200019b57600080fd5b505afa158015620001b0573d6000803e3d6000fd5b505050506040513d601f19601f82011682018060405250810190620001d6919062000b57565b600380546001600160a01b0319166001600160a01b039283161790556002546040805163d21220a760e01b815290516101009092049092169163d21220a7916004808301926020929190829003018186803b1580156200023557600080fd5b505afa1580156200024a573d6000803e3d6000fd5b505050506040513d601f19601f8201168201806040525081019062000270919062000b57565b600480546001600160a01b039283166001600160a01b031991821617909155600680548216731b02da8cb0d097eb8d57a175b88c7d8b4799750617905560188c905560058054928b16929091169190911790558651620002d89060129060208a019062000a14565b508551620002ee90601390602089019062000a14565b5084516200030490601990602088019062000a14565b5083516200031a90601490602087019062000a14565b5082516200033090601590602086019062000a14565b5081516200034690601a90602085019062000a14565b5080516200035c90601b90602084019062000a14565b5060095462000374906001600160a01b0316620003e3565b6200037e62000469565b505050505050505050505062000fda565b3390565b600080546001600160a01b038381166001600160a01b0319831681178455604051919092169283917f8be0079c531659141344cd1fd0a4f28419497f9722a3daafe3b4186f6b6457e09190a35050565b620003ed6200038f565b6001600160a01b0316620004006200066c565b6001600160a01b031614620004325760405162461bcd60e51b8152600401620004299062000e5d565b60405180910390fd5b6001600160a01b0381166200045b5760405162461bcd60e51b8152600401620004299062000dd1565b620004668162000393565b50565b600254620004a89061010090046001600160a01b0316730769fd68dfb93167989c6f7254cd0d766fb2841f60006200067b602090811b62001beb17901c565b600254620004e89061010090046001600160a01b0316730769fd68dfb93167989c6f7254cd0d766fb2841f60001962000789602090811b62001d1717901c565b60065460055462000514916001600160a01b03918216911660006200067b602090811b62001beb17901c565b60065460055462000541916001600160a01b03918216911660001962000789602090811b62001d1717901c565b6006546200057c9073c778417e063141139fce010982780140aa0cd5ab906001600160a01b031660006200067b602090811b62001beb17901c565b600654620005b89073c778417e063141139fce010982780140aa0cd5ab906001600160a01b031660001962000789602090811b62001d1717901c565b600654600354620005e4916001600160a01b03918216911660006200067b602090811b62001beb17901c565b60065460035462000611916001600160a01b03918216911660001962000789602090811b62001d1717901c565b6006546004546200063d916001600160a01b03918216911660006200067b602090811b62001beb17901c565b6006546004546200066a916001600160a01b03918216911660001962000789602090811b62001d1717901c565b565b6000546001600160a01b031690565b8015806200070a5750604051636eb1769f60e11b81526001600160a01b0384169063dd62ed3e90620006b4903090869060040162000d69565b60206040518083038186803b158015620006cd57600080fd5b505afa158015620006e2573d6000803e3d6000fd5b505050506040513d601f19601f8201168201806040525081019062000708919062000d32565b155b620007295760405162461bcd60e51b8152600401620004299062000f13565b620007848363095ea7b360e01b84846040516024016200074b92919062000d83565b60408051808303601f190181529190526020810180516001600160e01b0319939093166001600160e01b03938416179052906200084616565b505050565b600081846001600160a01b031663dd62ed3e30866040518363ffffffff1660e01b8152600401620007bc92919062000d69565b60206040518083038186803b158015620007d557600080fd5b505afa158015620007ea573d6000803e3d6000fd5b505050506040513d601f19601f8201168201806040525081019062000810919062000d32565b6200081c919062000f70565b9050620008408463095ea7b360e01b85846040516024016200074b92919062000d83565b50505050565b6000620008a2826040518060400160405280602081526020017f5361666545524332303a206c6f772d6c6576656c2063616c6c206661696c6564815250856001600160a01b0316620008e260201b62001dc3179092919060201c565b805190915015620007845780806020019051810190620008c3919062000d10565b620007845760405162461bcd60e51b8152600401620004299062000ec9565b6060620008f38484600085620008fd565b90505b9392505050565b606082471015620009225760405162461bcd60e51b8152600401620004299062000e17565b6200092d85620009cc565b6200094c5760405162461bcd60e51b8152600401620004299062000e92565b600080866001600160a01b031685876040516200096a919062000d4b565b60006040518083038185875af1925050503d8060008114620009a9576040519150601f19603f3d011682016040523d82523d6000602084013e620009ae565b606091505b509092509050620009c1828286620009d6565b979650505050505050565b803b15155b919050565b60608315620009e7575081620008f6565b825115620009f85782518084602001fd5b8160405162461bcd60e51b815260040162000429919062000d9c565b82805482825590600052602060002090810192821562000a6c579160200282015b8281111562000a6c57825182546001600160a01b0319166001600160a01b0390911617825560209092019160019091019062000a35565b5062000a7a92915062000a7e565b5090565b5b8082111562000a7a576000815560010162000a7f565b80516001600160a01b0381168114620009d157600080fd5b600082601f83011262000abe578081fd5b815160206001600160401b038083111562000add5762000add62000fc4565b8183026040518382820101818110848211171562000aff5762000aff62000fc4565b6040528481528381019250868401828801850189101562000b1e578687fd5b8692505b8583101562000b4b5762000b368162000a95565b84529284019260019290920191840162000b22565b50979650505050505050565b60006020828403121562000b69578081fd5b620008f68262000a95565b60008060008060008060008060008060006101608c8e03121562000b96578687fd5b62000ba18c62000a95565b9a5060208c0151995062000bb860408d0162000a95565b985062000bc860608d0162000a95565b60808d01519098506001600160401b0381111562000be4578788fd5b62000bf28e828f0162000aad565b60a08e015190985090506001600160401b0381111562000c10578687fd5b62000c1e8e828f0162000aad565b60c08e015190975090506001600160401b0381111562000c3c578586fd5b62000c4a8e828f0162000aad565b60e08e015190965090506001600160401b0381111562000c68578485fd5b62000c768e828f0162000aad565b6101008e015190955090506001600160401b0381111562000c95578384fd5b62000ca38e828f0162000aad565b6101208e015190945090506001600160401b0381111562000cc2578283fd5b62000cd08e828f0162000aad565b6101408e015190935090506001600160401b0381111562000cef578182fd5b62000cfd8e828f0162000aad565b9150509295989b509295989b9093969950565b60006020828403121562000d22578081fd5b81518015158114620008f6578182fd5b60006020828403121562000d44578081fd5b5051919050565b6000825162000d5f81846020870162000f95565b9190910192915050565b6001600160a01b0392831681529116602082015260400190565b6001600160a01b03929092168252602082015260400190565b600060208252825180602084015262000dbd81604085016020870162000f95565b601f01601f19169190910160400192915050565b60208082526026908201527f4f776e61626c653a206e6577206f776e657220697320746865207a65726f206160408201526564647265737360d01b606082015260800190565b60208082526026908201527f416464726573733a20696e73756666696369656e742062616c616e636520666f6040820152651c8818d85b1b60d21b606082015260800190565b6020808252818101527f4f776e61626c653a2063616c6c6572206973206e6f7420746865206f776e6572604082015260600190565b6020808252601d908201527f416464726573733a2063616c6c20746f206e6f6e2d636f6e7472616374000000604082015260600190565b6020808252602a908201527f5361666545524332303a204552433230206f7065726174696f6e20646964206e6040820152691bdd081cdd58d8d9595960b21b606082015260800190565b60208082526036908201527f5361666545524332303a20617070726f76652066726f6d206e6f6e2d7a65726f60408201527f20746f206e6f6e2d7a65726f20616c6c6f77616e636500000000000000000000606082015260800190565b6000821982111562000f9057634e487b7160e01b81526011600452602481fd5b500190565b60005b8381101562000fb257818101518382015260200162000f98565b83811115620008405750506000910152565b634e487b7160e01b600052604160045260246000fd5b6131d28062000fea6000396000f3fe60806040526004361061034e5760003560e01c8063783478ad116101bb578063a288fe03116100f7578063e7a0367911610095578063f36ba1971161006f578063f36ba19714610820578063fc5275d614610835578063ffbd3b1f14610855578063ffbe9f1e1461057c57610355565b8063e7a03679146107d6578063f1068454146107eb578063f2fde38b1461080057610355565b8063cfad57a2116100d1578063cfad57a214610777578063d389800f14610797578063d7cb416f146107ac578063db4b7eee146107c157610355565b8063a288fe0314610722578063b6b55f2514610742578063b74cd2421461076257610355565b80638456cb59116101645780638aa2c2f41161013e5780638aa2c2f4146106c35780638d9ab2be146106d85780638da5cb5b146106f85780638fefda061461070d57610355565b80638456cb591461068457806385f02dd614610699578063866b2018146106ae57610355565b80637b0a47ee116101955780637b0a47ee1461063a5780637ff36fbe1461064f5780638339aadc1461066457610355565b8063783478ad146105f0578063784def8c146106055780637abc39691461061a57610355565b806342da4eb31161028a5780635e21940f1161023357806368f541621161020d57806368f5416214610591578063693a090b146105a6578063715018a6146105bb57806371f564ad146105d057610355565b80635e21940f1461054757806365a5e30b1461056757806367057b6c1461057c57610355565b80634700d305116102645780634700d305146104fb5780635713071c146105105780635c975abb1461052557610355565b806342da4eb3146104bc57806344a3955e146104d157806346008a07146104e657610355565b80632e1a7d4d116102f75780633505b09f116102d15780633505b09f146104685780633d67dab61461047d5780633f4ba83a1461049257806341275358146104a757610355565b80632e1a7d4d1461041357806331282557146104335780633220d7321461045357610355565b8063178a8d0711610328578063178a8d07146103c75780631f1f9392146103dc57806326d07963146103f357610355565b806304c9d4901461035a5780630e19de88146103855780630fa4e01e146103b257610355565b3661035557005b600080fd5b34801561036657600080fd5b5061036f61086a565b60405161037c9190613011565b60405180910390f35b34801561039157600080fd5b506103a56103a03660046129f7565b610901565b60405161037c9190612b26565b3480156103be57600080fd5b5061036f61092b565b3480156103d357600080fd5b5061036f610931565b3480156103e857600080fd5b506103f1610937565b005b3480156103ff57600080fd5b506103a561040e3660046129f7565b610bb0565b34801561041f57600080fd5b5061036f61042e3660046129f7565b610bc0565b34801561043f57600080fd5b506103a561044e3660046129f7565b610e65565b34801561045f57600080fd5b506103a5610e75565b34801561047457600080fd5b506103f1610e84565b34801561048957600080fd5b506103a5610eb8565b34801561049e57600080fd5b506103f1610ec7565b3480156104b357600080fd5b506103a5610ef9565b3480156104c857600080fd5b5061036f610f08565b3480156104dd57600080fd5b5061036f611031565b3480156104f257600080fd5b506103a5611037565b34801561050757600080fd5b506103f1611046565b34801561051c57600080fd5b506103a5611080565b34801561053157600080fd5b5061053a611098565b60405161037c9190612bda565b34801561055357600080fd5b506103a56105623660046129f7565b6110a1565b34801561057357600080fd5b506103f16110b1565b34801561058857600080fd5b5061036f6110ee565b34801561059d57600080fd5b5061036f6110f4565b3480156105b257600080fd5b506103a56110fa565b3480156105c757600080fd5b506103f1611109565b3480156105dc57600080fd5b506103a56105eb3660046129f7565b611152565b3480156105fc57600080fd5b506103a5611162565b34801561061157600080fd5b506103a5611168565b34801561062657600080fd5b506103a56106353660046129f7565b611177565b34801561064657600080fd5b5061036f611187565b34801561065b57600080fd5b506103a561118d565b34801561067057600080fd5b506103a561067f3660046129f7565b61119c565b34801561069057600080fd5b506103f16111ac565b3480156106a557600080fd5b5061036f6111de565b3480156106ba57600080fd5b5061036f6111e4565b3480156106cf57600080fd5b506103a56111ea565b3480156106e457600080fd5b506103f16106f3366004612a77565b611202565b34801561070457600080fd5b506103a5611346565b34801561071957600080fd5b5061036f611355565b34801561072e57600080fd5b506103a561073d3660046129f7565b61135b565b34801561074e57600080fd5b5061036f61075d3660046129f7565b61136b565b34801561076e57600080fd5b5061036f6115af565b34801561078357600080fd5b506103f1610792366004612903565b6115b5565b3480156107a357600080fd5b506103f1611601565b3480156107b857600080fd5b506103a5611a85565b3480156107cd57600080fd5b506103a5611a94565b3480156107e257600080fd5b506103a5611aac565b3480156107f757600080fd5b5061036f611ac0565b34801561080c57600080fd5b506103f161081b366004612903565b611ac6565b34801561082c57600080fd5b506103f1611b34565b34801561084157600080fd5b506103a56108503660046129f7565b611bd5565b34801561086157600080fd5b5061036f611be5565b6018546040516393f1a40b60e01b81526000918291730769fd68dfb93167989c6f7254cd0d766fb2841f916393f1a40b916108aa9190309060040161301a565b604080518083038186803b1580156108c157600080fd5b505afa1580156108d5573d6000803e3d6000fd5b505050506040513d601f19601f820116820180604052508101906108f99190612a27565b509150505b90565b6017818154811061091157600080fd5b6000918252602090912001546001600160a01b0316905081565b600b5481565b600f5481565b600260015414156109635760405162461bcd60e51b815260040161095a90612f46565b60405180910390fd5b6002600155610970611098565b1561098d5760405162461bcd60e51b815260040161095a90612e32565b6003546040516370a0823160e01b81526000916001600160a01b0316906370a08231906109be903090600401612b26565b60206040518083038186803b1580156109d657600080fd5b505afa1580156109ea573d6000803e3d6000fd5b505050506040513d601f19601f82011682018060405250810190610a0e9190612a0f565b9050600081118015610a3157506005546003546001600160a01b03908116911614155b15610a9b57610a9b816016805480602002602001604051908101604052809291908181526020018280548015610a9057602002820191906000526020600020905b81546001600160a01b03168152600190910190602001808311610a72575b505050505030611ddc565b600480546040516370a0823160e01b81526000926001600160a01b03909216916370a0823191610acd91309101612b26565b60206040518083038186803b158015610ae557600080fd5b505afa158015610af9573d6000803e3d6000fd5b505050506040513d601f19601f82011682018060405250810190610b1d9190612a0f565b9050600081118015610b4057506005546004546001600160a01b03908116911614155b15610ba857610ba8816017805480602002602001604051908101604052809291908181526020018280548015610a90576020028201919060005260206000209081546001600160a01b03168152600190910190602001808311610a7257505050505030611ddc565b505060018055565b6019818154811061091157600080fd5b6000610bca611f2e565b6001600160a01b0316610bdb611346565b6001600160a01b031614610c015760405162461bcd60e51b815260040161095a90612e69565b60026001541415610c245760405162461bcd60e51b815260040161095a90612f46565b600260015581610c465760405162461bcd60e51b815260040161095a90612e9e565b6002546040516370a0823160e01b815260009161010090046001600160a01b0316906370a0823190610c7c903090600401612b26565b60206040518083038186803b158015610c9457600080fd5b505afa158015610ca8573d6000803e3d6000fd5b505050506040513d601f19601f82011682018060405250810190610ccc9190612a0f565b905080831115610d6f57610ce8610ce3828561312d565b611f32565b6002546040516370a0823160e01b81526101009091046001600160a01b0316906370a0823190610d1c903090600401612b26565b60206040518083038186803b158015610d3457600080fd5b505afa158015610d48573d6000803e3d6000fd5b505050506040513d601f19601f82011682018060405250810190610d6c9190612a0f565b90505b80831115610d7b578092505b610d83610f08565b831115610d9557610d92610f08565b92505b6000610d9f610f08565b600c54610dac908661310e565b610db691906130ee565b9050600c54811115610dc75750600c545b80600c54610dd5919061312d565b600c5560105460009061271090610dec908261312d565b610df6908761310e565b610e0091906130ee565b90508015610e2a57600754600254610e2a916001600160a01b036101009092048216911683611fa4565b610e34818661312d565b600954600254919650610e599161010090046001600160a01b03908116911687611fa4565b50600180559392505050565b6013818154811061091157600080fd5b6009546001600160a01b031681565b600a546001600160a01b03163314610eae5760405162461bcd60e51b815260040161095a90612d03565b610eb6611fc3565b565b6005546001600160a01b031681565b600a546001600160a01b03163314610ef15760405162461bcd60e51b815260040161095a90612d03565b610eae612138565b6008546001600160a01b031681565b6018546040516393f1a40b60e01b81526000918291730769fd68dfb93167989c6f7254cd0d766fb2841f916393f1a40b91610f489190309060040161301a565b604080518083038186803b158015610f5f57600080fd5b505afa158015610f73573d6000803e3d6000fd5b505050506040513d601f19601f82011682018060405250810190610f979190612a27565b506002546040516370a0823160e01b815291925082916101009091046001600160a01b0316906370a0823190610fd1903090600401612b26565b60206040518083038186803b158015610fe957600080fd5b505afa158015610ffd573d6000803e3d6000fd5b505050506040513d601f19601f820116820180604052508101906110219190612a0f565b61102b91906130d6565b91505090565b600c5481565b600a546001600160a01b031681565b600a546001600160a01b031633146110705760405162461bcd60e51b815260040161095a90612d03565b6110786121a6565b610eb6612201565b7363f7b7d85f9b02ad94c93a138a5b7508937b594281565b60025460ff1690565b601a818154811061091157600080fd5b600a546001600160a01b031633146110db5760405162461bcd60e51b815260040161095a90612d03565b6110e3612138565b6110eb61224e565b50565b61271081565b60105481565b6006546001600160a01b031681565b611111611f2e565b6001600160a01b0316611122611346565b6001600160a01b0316146111485760405162461bcd60e51b815260040161095a90612e69565b610eb6600061231b565b6015818154811061091157600080fd5b61dead81565b6007546001600160a01b031681565b6012818154811061091157600080fd5b600e5481565b6003546001600160a01b031681565b6014818154811061091157600080fd5b600a546001600160a01b031633146111d65760405162461bcd60e51b815260040161095a90612d03565b610eb66121a6565b600d5481565b6126ac81565b730769fd68dfb93167989c6f7254cd0d766fb2841f81565b600a546001600160a01b0316331461122c5760405162461bcd60e51b815260040161095a90612d03565b6103e88461123a87896130d6565b61124491906130d6565b11156112625760405162461bcd60e51b815260040161095a90612fda565b6126ac8310156112845760405162461bcd60e51b815260040161095a90612c86565b6127108311156112a65760405162461bcd60e51b815260040161095a90612c4f565b6103e38211156112c85760405162461bcd60e51b815260040161095a90612d7e565b600d869055600e859055600f84905560108390556011829055600680546001600160a01b0319166001600160a01b0383161790556040517f750807eeb548451f82ba7f92d0202705fb1886ac44b94fc763520e47bbe2ff4b90611336908890889088908890889088906130a5565b60405180910390a1505050505050565b6000546001600160a01b031690565b6103e881565b6016818154811061091157600080fd5b6000611375611f2e565b6001600160a01b0316611386611346565b6001600160a01b0316146113ac5760405162461bcd60e51b815260040161095a90612e69565b600260015414156113cf5760405162461bcd60e51b815260040161095a90612f46565b60026001556113dc611098565b156113f95760405162461bcd60e51b815260040161095a90612e32565b6000611403610f08565b6002546040516370a0823160e01b81529192506000916101009091046001600160a01b0316906370a082319061143d903090600401612b26565b60206040518083038186803b15801561145557600080fd5b505afa158015611469573d6000803e3d6000fd5b505050506040513d601f19601f8201168201806040525081019061148d9190612a0f565b6002549091506114ad9061010090046001600160a01b031633308761236b565b6002546040516370a0823160e01b8152829161010090046001600160a01b0316906370a08231906114e2903090600401612b26565b60206040518083038186803b1580156114fa57600080fd5b505afa15801561150e573d6000803e3d6000fd5b505050506040513d601f19601f820116820180604052508101906115329190612a0f565b61153c919061312d565b93506000841161155e5760405162461bcd60e51b815260040161095a90612db5565b600061156861224e565b600c549091508190156115915783600c5483611584919061310e565b61158e91906130ee565b90505b80600c5461159f91906130d6565b600c556001805595945050505050565b6103e381565b600a546001600160a01b031633146115df5760405162461bcd60e51b815260040161095a90612d03565b600a80546001600160a01b0319166001600160a01b0392909216919091179055565b600260015414156116245760405162461bcd60e51b815260040161095a90612f46565b6002600155611631611098565b1561164e5760405162461bcd60e51b815260040161095a90612e32565b600a546001600160a01b031633146116785760405162461bcd60e51b815260040161095a90612d03565b601854604051630c7e663b60e11b8152730769fd68dfb93167989c6f7254cd0d766fb2841f916318fccc76916116b39190309060040161301a565b600060405180830381600087803b1580156116cd57600080fd5b505af11580156116e1573d6000803e3d6000fd5b50506005546040516370a0823160e01b8152600093506001600160a01b0390911691506370a0823190611718903090600401612b26565b60206040518083038186803b15801561173057600080fd5b505afa158015611744573d6000803e3d6000fd5b505050506040513d601f19601f820116820180604052508101906117689190612a0f565b905080156118ae576005546117879082906001600160a01b031661238c565b6005549091506117a19082906001600160a01b03166124e7565b6003546005549192506001600160a01b03918216911614611829576118296117ca6002836130ee565b6014805480602002602001604051908101604052809291908181526020018280548015610a90576020028201919060005260206000209081546001600160a01b03168152600190910190602001808311610a7257505050505030611ddc565b6004546005546001600160a01b039081169116146118ae576118ae61184f6002836130ee565b6015805480602002602001604051908101604052809291908181526020018280548015610a90576020028201919060005260206000209081546001600160a01b03168152600190910190602001808311610a7257505050505030611ddc565b8015611a7e576003546040516370a0823160e01b81526000916001600160a01b0316906370a08231906118e5903090600401612b26565b60206040518083038186803b1580156118fd57600080fd5b505afa158015611911573d6000803e3d6000fd5b505050506040513d601f19601f820116820180604052508101906119359190612a0f565b600480546040516370a0823160e01b81529293506000926001600160a01b03909116916370a082319161196a91309101612b26565b60206040518083038186803b15801561198257600080fd5b505afa158015611996573d6000803e3d6000fd5b505050506040513d601f19601f820116820180604052508101906119ba9190612a0f565b90506000821180156119cc5750600081115b15611a6e576006546003546004805460405162e8e33760e81b81526001600160a01b039485169463e8e3370094611a189490821693909116918891889160009182913091429101612b78565b606060405180830381600087803b158015611a3257600080fd5b505af1158015611a46573d6000803e3d6000fd5b505050506040513d601f19601f82011682018060405250810190611a6a9190612a4a565b5050505b43600b55611a7a61224e565b5050505b5060018055565b6004546001600160a01b031681565b73c778417e063141139fce010982780140aa0cd5ab81565b60025461010090046001600160a01b031681565b60185481565b611ace611f2e565b6001600160a01b0316611adf611346565b6001600160a01b031614611b055760405162461bcd60e51b815260040161095a90612e69565b6001600160a01b038116611b2b5760405162461bcd60e51b815260040161095a90612cbd565b6110eb8161231b565b600a546001600160a01b03163314611b5e5760405162461bcd60e51b815260040161095a90612d03565b611b666121a6565b6018546040516302f940c760e41b8152730769fd68dfb93167989c6f7254cd0d766fb2841f91632f940c7091611ba19190309060040161301a565b600060405180830381600087803b158015611bbb57600080fd5b505af1158015611bcf573d6000803e3d6000fd5b50505050565b601b818154811061091157600080fd5b60115481565b801580611c735750604051636eb1769f60e11b81526001600160a01b0384169063dd62ed3e90611c219030908690600401612b3a565b60206040518083038186803b158015611c3957600080fd5b505afa158015611c4d573d6000803e3d6000fd5b505050506040513d601f19601f82011682018060405250810190611c719190612a0f565b155b611c8f5760405162461bcd60e51b815260040161095a90612f7d565b611d128363095ea7b360e01b8484604051602401611cae929190612bc1565b60408051601f198184030181529190526020810180517bffffffffffffffffffffffffffffffffffffffffffffffffffffffff167fffffffff00000000000000000000000000000000000000000000000000000000909316929092179091526125a4565b505050565b600081846001600160a01b031663dd62ed3e30866040518363ffffffff1660e01b8152600401611d48929190612b3a565b60206040518083038186803b158015611d6057600080fd5b505afa158015611d74573d6000803e3d6000fd5b505050506040513d601f19601f82011682018060405250810190611d989190612a0f565b611da291906130d6565b9050611bcf8463095ea7b360e01b8584604051602401611cae929190612bc1565b6060611dd28484600085612633565b90505b9392505050565b60065460405163d06ca61f60e01b81526000916001600160a01b03169063d06ca61f90611e0f9087908790600401613031565b60006040518083038186803b158015611e2757600080fd5b505afa158015611e3b573d6000803e3d6000fd5b505050506040513d6000823e601f3d908101601f19168201604052611e63919081019061291d565b905060008160018351611e76919061312d565b81518110611e9457634e487b7160e01b600052603260045260246000fd5b60209081029190910101516006546011549192506001600160a01b031690635c11d7959087906103e890611ec8908661310e565b611ed291906130ee565b8787426040518663ffffffff1660e01b8152600401611ef5959493929190613069565b600060405180830381600087803b158015611f0f57600080fd5b505af1158015611f23573d6000803e3d6000fd5b505050505050505050565b3390565b601854604051630ad58d2f60e01b8152730769fd68dfb93167989c6f7254cd0d766fb2841f91630ad58d2f91611f6f91908590309060040161304a565b600060405180830381600087803b158015611f8957600080fd5b505af1158015611f9d573d6000803e3d6000fd5b5050505050565b611d128363a9059cbb60e01b8484604051602401611cae929190612bc1565b600254611ff49061010090046001600160a01b0316730769fd68dfb93167989c6f7254cd0d766fb2841f6000611beb565b6002546120269061010090046001600160a01b0316730769fd68dfb93167989c6f7254cd0d766fb2841f600019611d17565b600654600554612044916001600160a01b0391821691166000611beb565b600654600554612063916001600160a01b039182169116600019611d17565b6006546120909073c778417e063141139fce010982780140aa0cd5ab906001600160a01b03166000611beb565b6006546120be9073c778417e063141139fce010982780140aa0cd5ab906001600160a01b0316600019611d17565b6006546003546120dc916001600160a01b0391821691166000611beb565b6006546003546120fb916001600160a01b039182169116600019611d17565b600654600454612119916001600160a01b0391821691166000611beb565b600654600454610eb6916001600160a01b039182169116600019611d17565b612140611098565b61215c5760405162461bcd60e51b815260040161095a90612c18565b6002805460ff191690557f5db9ee0a495bf2e6ff9c91a7834c1ba4fdd244a5e8aa4e537bd38aeae4b073aa61218f611f2e565b60405161219c9190612b26565b60405180910390a1565b6121ae611098565b156121cb5760405162461bcd60e51b815260040161095a90612e32565b6002805460ff191660011790557f62e78cea01bee320cd4e420270b5ea74000d11b0c9f74754ebdbfc544b05a25861218f611f2e565b730769fd68dfb93167989c6f7254cd0d766fb2841f6001600160a01b0316630ad58d2f60185461222f61086a565b306040518463ffffffff1660e01b8152600401611ba19392919061304a565b6002546040516370a0823160e01b815260009182916101009091046001600160a01b0316906370a0823190612287903090600401612b26565b60206040518083038186803b15801561229f57600080fd5b505afa1580156122b3573d6000803e3d6000fd5b505050506040513d601f19601f820116820180604052508101906122d79190612a0f565b9050806122e85760009150506108fe565b60006122f261086a565b90506122fd826126f3565b600061230761086a565b9050612313828261312d565b935050505090565b600080546001600160a01b038381166001600160a01b0319831681178455604051919092169283917f8be0079c531659141344cd1fd0a4f28419497f9722a3daafe3b4186f6b6457e09190a35050565b611bcf846323b872dd60e01b858585604051602401611cae93929190612b54565b600d54600090156124e0576000612710600d54856123aa919061310e565b6123b491906130ee565b90506001600160a01b03831673c778417e063141139fce010982780140aa0cd5ab141561246057604051632e1a7d4d60e01b815273c778417e063141139fce010982780140aa0cd5ab90632e1a7d4d90612412908490600401613011565b600060405180830381600087803b15801561242c57600080fd5b505af1158015612440573d6000803e3d6000fd5b505060085461245b92506001600160a01b0316905082612730565b6124d2565b6124d28160128054806020026020016040519081016040528092919081815260200182805480156124ba57602002820191906000526020600020905b81546001600160a01b0316815260019091019060200180831161249c575b50506008546001600160a01b031692506127bd915050565b6124dc818561312d565b9350505b5090919050565b600f54600090156124e0576000612710600f5485612505919061310e565b61250f91906130ee565b90506124d2816001600160a01b03851673c778417e063141139fce010982780140aa0cd5ab14612540576013612543565b60195b80548060200260200160405190810160405280929190818152602001828054801561259757602002820191906000526020600020905b81546001600160a01b03168152600190910190602001808311612579575b505050505061dead611ddc565b60006125f9826040518060400160405280602081526020017f5361666545524332303a206c6f772d6c6576656c2063616c6c206661696c6564815250856001600160a01b0316611dc39092919063ffffffff16565b805190915015611d12578080602001905181019061261791906129d7565b611d125760405162461bcd60e51b815260040161095a90612efc565b6060824710156126555760405162461bcd60e51b815260040161095a90612dec565b61265e856128a9565b61267a5760405162461bcd60e51b815260040161095a90612ec5565b600080866001600160a01b031685876040516126969190612b0a565b60006040518083038185875af1925050503d80600081146126d3576040519150601f19603f3d011682016040523d82523d6000602084013e6126d8565b606091505b50915091506126e88282866128b3565b979650505050505050565b601854604051638dbdbe6d60e01b8152730769fd68dfb93167989c6f7254cd0d766fb2841f91638dbdbe6d91611f6f91908590309060040161304a565b604080516000808252602082019092526001600160a01b03841690839060405161275a9190612b0a565b60006040518083038185875af1925050503d8060008114612797576040519150601f19603f3d011682016040523d82523d6000602084013e61279c565b606091505b5050905080611d125760405162461bcd60e51b815260040161095a90612d21565b60065460405163d06ca61f60e01b81526000916001600160a01b03169063d06ca61f906127f09087908790600401613031565b60006040518083038186803b15801561280857600080fd5b505afa15801561281c573d6000803e3d6000fd5b505050506040513d6000823e601f3d908101601f19168201604052612844919081019061291d565b905060008160018351612857919061312d565b8151811061287557634e487b7160e01b600052603260045260246000fd5b60209081029190910101516006546011549192506001600160a01b03169063762b15629087906103e890611ec8908661310e565b803b15155b919050565b606083156128c2575081611dd5565b8251156128d25782518084602001fd5b8160405162461bcd60e51b815260040161095a9190612be5565b80356001600160a01b03811681146128ae57600080fd5b600060208284031215612914578081fd5b611dd5826128ec565b6000602080838503121561292f578182fd5b825167ffffffffffffffff80821115612946578384fd5b818501915085601f830112612959578384fd5b81518181111561296b5761296b613186565b8381026040518582820101818110858211171561298a5761298a613186565b604052828152858101935084860182860187018a10156129a8578788fd5b8795505b838610156129ca5780518552600195909501949386019386016129ac565b5098975050505050505050565b6000602082840312156129e8578081fd5b81518015158114611dd5578182fd5b600060208284031215612a08578081fd5b5035919050565b600060208284031215612a20578081fd5b5051919050565b60008060408385031215612a39578081fd5b505080516020909101519092909150565b600080600060608486031215612a5e578081fd5b8351925060208401519150604084015190509250925092565b60008060008060008060c08789031215612a8f578182fd5b8635955060208701359450604087013593506060870135925060808701359150612abb60a088016128ec565b90509295509295509295565b6000815180845260208085019450808401835b83811015612aff5781516001600160a01b031687529582019590820190600101612ada565b509495945050505050565b60008251612b1c818460208701613144565b9190910192915050565b6001600160a01b0391909116815260200190565b6001600160a01b0392831681529116602082015260400190565b6001600160a01b039384168152919092166020820152604081019190915260600190565b6001600160a01b039889168152968816602088015260408701959095526060860193909352608085019190915260a084015290921660c082015260e08101919091526101000190565b6001600160a01b03929092168252602082015260400190565b901515815260200190565b6000602082528251806020840152612c04816040850160208701613144565b601f01601f19169190910160400192915050565b60208082526014908201527f5061757361626c653a206e6f7420706175736564000000000000000000000000604082015260600190565b6020808252601b908201527f5f7769746864726177466565466163746f7220746f6f20686967680000000000604082015260600190565b6020808252601a908201527f5f7769746864726177466565466163746f7220746f6f206c6f77000000000000604082015260600190565b60208082526026908201527f4f776e61626c653a206e6577206f776e657220697320746865207a65726f206160408201526564647265737360d01b606082015260800190565b60208082526004908201526310b3b7bb60e11b604082015260600190565b60208082526034908201527f5472616e7366657248656c7065723a3a736166655472616e736665724554483a60408201527f20455448207472616e73666572206661696c6564000000000000000000000000606082015260800190565b60208082526018908201527f5f736c697070616765466163746f7220746f6f20686967680000000000000000604082015260600190565b60208082526019908201527f5765206f6e6c792061636365707420616d6f756e74203e203000000000000000604082015260600190565b60208082526026908201527f416464726573733a20696e73756666696369656e742062616c616e636520666f6040820152651c8818d85b1b60d21b606082015260800190565b60208082526010908201527f5061757361626c653a2070617573656400000000000000000000000000000000604082015260600190565b6020808252818101527f4f776e61626c653a2063616c6c6572206973206e6f7420746865206f776e6572604082015260600190565b6020808252600d908201526c05f77616e74416d74206973203609c1b604082015260600190565b6020808252601d908201527f416464726573733a2063616c6c20746f206e6f6e2d636f6e7472616374000000604082015260600190565b6020808252602a908201527f5361666545524332303a204552433230206f7065726174696f6e20646964206e6040820152691bdd081cdd58d8d9595960b21b606082015260800190565b6020808252601f908201527f5265656e7472616e637947756172643a207265656e7472616e742063616c6c00604082015260600190565b60208082526036908201527f5361666545524332303a20617070726f76652066726f6d206e6f6e2d7a65726f60408201527f20746f206e6f6e2d7a65726f20616c6c6f77616e636500000000000000000000606082015260800190565b6020808252600e908201527f4d617820666565206f6620313025000000000000000000000000000000000000604082015260600190565b90815260200190565b9182526001600160a01b0316602082015260400190565b600083825260406020830152611dd26040830184612ac7565b92835260208301919091526001600160a01b0316604082015260600190565b600086825285602083015260a0604083015261308860a0830186612ac7565b6001600160a01b0394909416606083015250608001529392505050565b95865260208601949094526040850192909252606084015260808301526001600160a01b031660a082015260c00190565b600082198211156130e9576130e9613170565b500190565b60008261310957634e487b7160e01b81526012600452602481fd5b500490565b600081600019048311821515161561312857613128613170565b500290565b60008282101561313f5761313f613170565b500390565b60005b8381101561315f578181015183820152602001613147565b83811115611bcf5750506000910152565b634e487b7160e01b600052601160045260246000fd5b634e487b7160e01b600052604160045260246000fdfea264697066735822122075e461df3577a81520d338ba8403b9567970b5833ddb11129d58d52e7e46d89364736f6c63430008000033",
  "devdoc": {
    "kind": "dev",
    "methods": {
      "constructor": {
        "details": "Constructor function",
        "params": {
          "_gainedAddress": "Gained address",
          "_gainedToBBankPath": "Path for gained and bbank",
          "_gainedToToken0Path": "Path for gained and token0",
          "_gainedToToken1Path": "Path for gained and token1",
          "_gainedToWmaticPath": "Path for gained and wmatic",
          "_pid": "pool id in Sushiswap",
          "_vaultChefAddress": "VaultChef address",
          "_wantAddress": "Want address",
          "_wmaticToBBankPath": "Path for wmatic and bbank",
          "_wmaticToToken0Path": "Path for wmatic and token0",
          "_wmaticToToken1Path": "Path for wmatic and token1"
        }
      },
      "earn()": {
        "details": "Earn farm tokens and add liquidity"
      },
      "emergencyPanic()": {
        "details": "Withdraw the total shares token"
      },
      "owner()": {
        "details": "Returns the address of the current owner."
      },
      "paused()": {
        "details": "Returns true if the contract is paused, and false otherwise."
      },
      "renounceOwnership()": {
        "details": "Leaves the contract without owner. It will not be possible to call `onlyOwner` functions anymore. Can only be called by the current owner. NOTE: Renouncing ownership will leave the contract without an owner, thereby removing any functionality that is only available to the owner."
      },
      "transferOwnership(address)": {
        "details": "Transfers ownership of the contract to a new account (`newOwner`). Can only be called by the current owner."
      },
      "vaultSharesTotal()": {
        "details": "Shares token total amount of vault"
      },
      "wantLockedTotal()": {
        "details": "Locked want token total amount"
      }
    },
    "stateVariables": {
      "pid": {
        "details": "Pool id in Sushiswap"
      },
      "sushiYieldAddress": {
        "details": "Sushi yield address in Polygon|Rinkeby"
      },
      "wmaticAddress": {
        "details": "Wmatic address in Polygon"
      },
      "wmaticToBBankPath": {
        "details": "[wmatic, bbank] path"
      },
      "wmaticToToken0Path": {
        "details": "[wmatic, token0] path"
      },
      "wmaticToToken1Path": {
        "details": "[wmatic, token1] path"
      }
    },
    "version": 1
  },
  "userdoc": {
    "kind": "user",
    "methods": {},
    "version": 1
  },
  "storageLayout": {
    "storage": [
      {
        "astId": 7,
        "contract": "contracts/vault/StrategySushiSwap.sol:StrategySushiSwap",
        "label": "_owner",
        "offset": 0,
        "slot": "0",
        "type": "t_address"
      },
      {
        "astId": 207,
        "contract": "contracts/vault/StrategySushiSwap.sol:StrategySushiSwap",
        "label": "_status",
        "offset": 0,
        "slot": "1",
        "type": "t_uint256"
      },
      {
        "astId": 122,
        "contract": "contracts/vault/StrategySushiSwap.sol:StrategySushiSwap",
        "label": "_paused",
        "offset": 0,
        "slot": "2",
        "type": "t_bool"
      },
      {
        "astId": 2782,
        "contract": "contracts/vault/StrategySushiSwap.sol:StrategySushiSwap",
        "label": "wantAddress",
        "offset": 1,
        "slot": "2",
        "type": "t_address"
      },
      {
        "astId": 2784,
        "contract": "contracts/vault/StrategySushiSwap.sol:StrategySushiSwap",
        "label": "token0Address",
        "offset": 0,
        "slot": "3",
        "type": "t_address"
      },
      {
        "astId": 2786,
        "contract": "contracts/vault/StrategySushiSwap.sol:StrategySushiSwap",
        "label": "token1Address",
        "offset": 0,
        "slot": "4",
        "type": "t_address"
      },
      {
        "astId": 2788,
        "contract": "contracts/vault/StrategySushiSwap.sol:StrategySushiSwap",
        "label": "gainedAddress",
        "offset": 0,
        "slot": "5",
        "type": "t_address"
      },
      {
        "astId": 2790,
        "contract": "contracts/vault/StrategySushiSwap.sol:StrategySushiSwap",
        "label": "uniRouterAddress",
        "offset": 0,
        "slot": "6",
        "type": "t_address"
      },
      {
        "astId": 2796,
        "contract": "contracts/vault/StrategySushiSwap.sol:StrategySushiSwap",
        "label": "withdrawFeeAddress",
        "offset": 0,
        "slot": "7",
        "type": "t_address"
      },
      {
        "astId": 2799,
        "contract": "contracts/vault/StrategySushiSwap.sol:StrategySushiSwap",
        "label": "feeAddress",
        "offset": 0,
        "slot": "8",
        "type": "t_address"
      },
      {
        "astId": 2801,
        "contract": "contracts/vault/StrategySushiSwap.sol:StrategySushiSwap",
        "label": "vaultChefAddress",
        "offset": 0,
        "slot": "9",
        "type": "t_address"
      },
      {
        "astId": 2803,
        "contract": "contracts/vault/StrategySushiSwap.sol:StrategySushiSwap",
        "label": "govAddress",
        "offset": 0,
        "slot": "10",
        "type": "t_address"
      },
      {
        "astId": 2807,
        "contract": "contracts/vault/StrategySushiSwap.sol:StrategySushiSwap",
        "label": "lastEarnBlock",
        "offset": 0,
        "slot": "11",
        "type": "t_uint256"
      },
      {
        "astId": 2810,
        "contract": "contracts/vault/StrategySushiSwap.sol:StrategySushiSwap",
        "label": "sharesTotal",
        "offset": 0,
        "slot": "12",
        "type": "t_uint256"
      },
      {
        "astId": 2816,
        "contract": "contracts/vault/StrategySushiSwap.sol:StrategySushiSwap",
        "label": "controllerFee",
        "offset": 0,
        "slot": "13",
        "type": "t_uint256"
      },
      {
        "astId": 2819,
        "contract": "contracts/vault/StrategySushiSwap.sol:StrategySushiSwap",
        "label": "rewardRate",
        "offset": 0,
        "slot": "14",
        "type": "t_uint256"
      },
      {
        "astId": 2822,
        "contract": "contracts/vault/StrategySushiSwap.sol:StrategySushiSwap",
        "label": "buyBackRate",
        "offset": 0,
        "slot": "15",
        "type": "t_uint256"
      },
      {
        "astId": 2831,
        "contract": "contracts/vault/StrategySushiSwap.sol:StrategySushiSwap",
        "label": "withdrawFeeFactor",
        "offset": 0,
        "slot": "16",
        "type": "t_uint256"
      },
      {
        "astId": 2840,
        "contract": "contracts/vault/StrategySushiSwap.sol:StrategySushiSwap",
        "label": "slippageFactor",
        "offset": 0,
        "slot": "17",
        "type": "t_uint256"
      },
      {
        "astId": 2846,
        "contract": "contracts/vault/StrategySushiSwap.sol:StrategySushiSwap",
        "label": "gainedToWmaticPath",
        "offset": 0,
        "slot": "18",
        "type": "t_array(t_address)dyn_storage"
      },
      {
        "astId": 2849,
        "contract": "contracts/vault/StrategySushiSwap.sol:StrategySushiSwap",
        "label": "gainedToBBankPath",
        "offset": 0,
        "slot": "19",
        "type": "t_array(t_address)dyn_storage"
      },
      {
        "astId": 2852,
        "contract": "contracts/vault/StrategySushiSwap.sol:StrategySushiSwap",
        "label": "gainedToToken0Path",
        "offset": 0,
        "slot": "20",
        "type": "t_array(t_address)dyn_storage"
      },
      {
        "astId": 2855,
        "contract": "contracts/vault/StrategySushiSwap.sol:StrategySushiSwap",
        "label": "gainedToToken1Path",
        "offset": 0,
        "slot": "21",
        "type": "t_array(t_address)dyn_storage"
      },
      {
        "astId": 2858,
        "contract": "contracts/vault/StrategySushiSwap.sol:StrategySushiSwap",
        "label": "token0ToGainedPath",
        "offset": 0,
        "slot": "22",
        "type": "t_array(t_address)dyn_storage"
      },
      {
        "astId": 2861,
        "contract": "contracts/vault/StrategySushiSwap.sol:StrategySushiSwap",
        "label": "token1ToGainedPath",
        "offset": 0,
        "slot": "23",
        "type": "t_array(t_address)dyn_storage"
      },
      {
        "astId": 4970,
        "contract": "contracts/vault/StrategySushiSwap.sol:StrategySushiSwap",
        "label": "pid",
        "offset": 0,
        "slot": "24",
        "type": "t_uint256"
      },
      {
        "astId": 4982,
        "contract": "contracts/vault/StrategySushiSwap.sol:StrategySushiSwap",
        "label": "wmaticToBBankPath",
        "offset": 0,
        "slot": "25",
        "type": "t_array(t_address)dyn_storage"
      },
      {
        "astId": 4986,
        "contract": "contracts/vault/StrategySushiSwap.sol:StrategySushiSwap",
        "label": "wmaticToToken0Path",
        "offset": 0,
        "slot": "26",
        "type": "t_array(t_address)dyn_storage"
      },
      {
        "astId": 4990,
        "contract": "contracts/vault/StrategySushiSwap.sol:StrategySushiSwap",
        "label": "wmaticToToken1Path",
        "offset": 0,
        "slot": "27",
        "type": "t_array(t_address)dyn_storage"
      }
    ],
    "types": {
      "t_address": {
        "encoding": "inplace",
        "label": "address",
        "numberOfBytes": "20"
      },
      "t_array(t_address)dyn_storage": {
        "base": "t_address",
        "encoding": "dynamic_array",
        "label": "address[]",
        "numberOfBytes": "32"
      },
      "t_bool": {
        "encoding": "inplace",
        "label": "bool",
        "numberOfBytes": "1"
      },
      "t_uint256": {
        "encoding": "inplace",
        "label": "uint256",
        "numberOfBytes": "32"
      }
    }
  }
}