{
  "address": "0x48De7F1b8000b0c962D3D48c4CCA295367fF8027",
  "abi": [
    {
      "anonymous": false,
      "inputs": [
        {
          "indexed": true,
          "internalType": "address",
          "name": "strat",
          "type": "address"
        },
        {
          "indexed": true,
          "internalType": "uint256",
          "name": "pid",
          "type": "uint256"
        }
      ],
      "name": "AddPool",
      "type": "event"
    },
    {
      "anonymous": false,
      "inputs": [
        {
          "indexed": true,
          "internalType": "address",
          "name": "user",
          "type": "address"
        },
        {
          "indexed": true,
          "internalType": "uint256",
          "name": "pid",
          "type": "uint256"
        },
        {
          "indexed": false,
          "internalType": "uint256",
          "name": "amount",
          "type": "uint256"
        }
      ],
      "name": "Deposit",
      "type": "event"
    },
    {
      "anonymous": false,
      "inputs": [
        {
          "indexed": true,
          "internalType": "address",
          "name": "operator",
          "type": "address"
        },
        {
          "indexed": true,
          "internalType": "bool",
          "name": "status",
          "type": "bool"
        }
      ],
      "name": "OperatorUpdated",
      "type": "event"
    },
    {
      "anonymous": false,
      "inputs": [
        {
          "indexed": true,
          "internalType": "address",
          "name": "previousOwner",
          "type": "address"
        },
        {
          "indexed": true,
          "internalType": "address",
          "name": "newOwner",
          "type": "address"
        }
      ],
      "name": "OwnershipTransferred",
      "type": "event"
    },
    {
      "anonymous": false,
      "inputs": [
        {
          "indexed": true,
          "internalType": "address",
          "name": "user",
          "type": "address"
        }
      ],
      "name": "ResetAllowance",
      "type": "event"
    },
    {
      "anonymous": false,
      "inputs": [
        {
          "indexed": true,
          "internalType": "address",
          "name": "user",
          "type": "address"
        },
        {
          "indexed": true,
          "internalType": "uint256",
          "name": "pid",
          "type": "uint256"
        }
      ],
      "name": "ResetSingleAllowance",
      "type": "event"
    },
    {
      "anonymous": false,
      "inputs": [
        {
          "indexed": true,
          "internalType": "address",
          "name": "user",
          "type": "address"
        },
        {
          "indexed": true,
          "internalType": "uint256",
          "name": "pid",
          "type": "uint256"
        },
        {
          "indexed": false,
          "internalType": "uint256",
          "name": "amount",
          "type": "uint256"
        }
      ],
      "name": "Withdraw",
      "type": "event"
    },
    {
      "inputs": [
        {
          "internalType": "address",
          "name": "_strat",
          "type": "address"
        }
      ],
      "name": "addPool",
      "outputs": [],
      "stateMutability": "nonpayable",
      "type": "function"
    },
    {
      "inputs": [
        {
          "internalType": "uint256",
          "name": "_pid",
          "type": "uint256"
        },
        {
          "internalType": "uint256",
          "name": "_wantAmt",
          "type": "uint256"
        }
      ],
      "name": "deposit",
      "outputs": [],
      "stateMutability": "nonpayable",
      "type": "function"
    },
    {
      "inputs": [
        {
          "internalType": "uint256",
          "name": "_pid",
          "type": "uint256"
        },
        {
          "internalType": "uint256",
          "name": "_wantAmt",
          "type": "uint256"
        },
        {
          "internalType": "address",
          "name": "_to",
          "type": "address"
        }
      ],
      "name": "depositTo",
      "outputs": [],
      "stateMutability": "nonpayable",
      "type": "function"
    },
    {
      "inputs": [
        {
          "internalType": "address",
          "name": "",
          "type": "address"
        }
      ],
      "name": "operators",
      "outputs": [
        {
          "internalType": "bool",
          "name": "",
          "type": "bool"
        }
      ],
      "stateMutability": "view",
      "type": "function"
    },
    {
      "inputs": [],
      "name": "owner",
      "outputs": [
        {
          "internalType": "address",
          "name": "",
          "type": "address"
        }
      ],
      "stateMutability": "view",
      "type": "function"
    },
    {
      "inputs": [
        {
          "internalType": "uint256",
          "name": "",
          "type": "uint256"
        }
      ],
      "name": "poolInfo",
      "outputs": [
        {
          "internalType": "contract IERC20",
          "name": "want",
          "type": "address"
        },
        {
          "internalType": "address",
          "name": "strat",
          "type": "address"
        }
      ],
      "stateMutability": "view",
      "type": "function"
    },
    {
      "inputs": [],
      "name": "poolLength",
      "outputs": [
        {
          "internalType": "uint256",
          "name": "",
          "type": "uint256"
        }
      ],
      "stateMutability": "view",
      "type": "function"
    },
    {
      "inputs": [],
      "name": "renounceOwnership",
      "outputs": [],
      "stateMutability": "nonpayable",
      "type": "function"
    },
    {
      "inputs": [],
      "name": "resetAllowances",
      "outputs": [],
      "stateMutability": "nonpayable",
      "type": "function"
    },
    {
      "inputs": [
        {
          "internalType": "uint256",
          "name": "_pid",
          "type": "uint256"
        }
      ],
      "name": "resetSingleAllowance",
      "outputs": [],
      "stateMutability": "nonpayable",
      "type": "function"
    },
    {
      "inputs": [
        {
          "internalType": "address",
          "name": "newOwner",
          "type": "address"
        }
      ],
      "name": "transferOwnership",
      "outputs": [],
      "stateMutability": "nonpayable",
      "type": "function"
    },
    {
      "inputs": [
        {
          "internalType": "address",
          "name": "_operator",
          "type": "address"
        },
        {
          "internalType": "bool",
          "name": "_status",
          "type": "bool"
        }
      ],
      "name": "updateOperator",
      "outputs": [],
      "stateMutability": "nonpayable",
      "type": "function"
    },
    {
      "inputs": [
        {
          "internalType": "uint256",
          "name": "",
          "type": "uint256"
        },
        {
          "internalType": "address",
          "name": "",
          "type": "address"
        }
      ],
      "name": "userInfo",
      "outputs": [
        {
          "internalType": "uint256",
          "name": "shares",
          "type": "uint256"
        }
      ],
      "stateMutability": "view",
      "type": "function"
    },
    {
      "inputs": [
        {
          "internalType": "uint256",
          "name": "_pid",
          "type": "uint256"
        },
        {
          "internalType": "uint256",
          "name": "_wantAmt",
          "type": "uint256"
        }
      ],
      "name": "withdraw",
      "outputs": [],
      "stateMutability": "nonpayable",
      "type": "function"
    },
    {
      "inputs": [
        {
          "internalType": "uint256",
          "name": "_pid",
          "type": "uint256"
        }
      ],
      "name": "withdrawAll",
      "outputs": [],
      "stateMutability": "nonpayable",
      "type": "function"
    },
    {
      "inputs": [
        {
          "internalType": "uint256",
          "name": "_pid",
          "type": "uint256"
        },
        {
          "internalType": "uint256",
          "name": "_wantAmt",
          "type": "uint256"
        },
        {
          "internalType": "address",
          "name": "_to",
          "type": "address"
        }
      ],
      "name": "withdrawTo",
      "outputs": [],
      "stateMutability": "nonpayable",
      "type": "function"
    }
  ],
  "transactionHash": "0xccbd5ff4893dca9a68ba94aaad85bed647b0d59d43872eb766bc3e5666d4c462",
  "args": [],
  "numDeployments": 1,
  "solcInputHash": "18a161ae1dcde1b7d5eb0aaa7f4e9a95",
  "bytecode": "0x608060405234801561001057600080fd5b5061002161001c61002a565b61002e565b6001805561007e565b3390565b600080546001600160a01b038381166001600160a01b0319831681178455604051919092169283917f8be0079c531659141344cd1fd0a4f28419497f9722a3daafe3b4186f6b6457e09190a35050565b611abd8061008d6000396000f3fe608060405234801561001057600080fd5b50600436106101005760003560e01c8063715018a6116100975780639a269e0c116100665780639a269e0c146101fd578063d914cd4b14610210578063e2bbb15814610223578063f2fde38b1461023657610100565b8063715018a6146101ba5780638da5cb5b146101c257806393f1a40b146101d7578063958e2d31146101ea57610100565b806323e1ad7d116100d357806323e1ad7d146101795780633505b09f1461018c578063441a3e70146101945780636d44a3b2146101a757610100565b8063081e3eda1461010557806313e7c9d81461012357806314cd70e4146101435780631526fe2714610158575b600080fd5b61010d610249565b60405161011a9190611990565b60405180910390f35b61013661013136600461149c565b61024f565b60405161011a919061165c565b61015661015136600461159d565b610264565b005b61016b610166366004611528565b6102db565b60405161011a929190611605565b610156610187366004611528565b610314565b61015661040b565b6101566101a236600461157c565b610520565b6101566101b53660046114d4565b61055b565b6101566105ee565b6101ca610639565b60405161011a91906115f1565b61010d6101e5366004611558565b610648565b6101566101f8366004611528565b610665565b61015661020b36600461159d565b6106a1565b61015661021e36600461149c565b610706565b61015661023136600461157c565b6109ec565b61015661024436600461149c565b610a1f565b60035490565b60026020526000908152604090205460ff1681565b600260015414156102905760405162461bcd60e51b8152600401610287906118b8565b60405180910390fd5b60026001819055336000908152602091909152604090205460ff166102c75760405162461bcd60e51b81526004016102879061194c565b6102d2838383610a90565b50506001805550565b600381815481106102eb57600080fd5b6000918252602090912060029091020180546001909101546001600160a01b0391821692501682565b61031c610df3565b6001600160a01b031661032d610639565b6001600160a01b0316146103535760405162461bcd60e51b8152600401610287906117cb565b60006003828154811061037657634e487b7160e01b600052603260045260246000fd5b60009182526020822060016002909202019081015481549193506103a9926001600160a01b039283169290911690610df7565b600181015481546103c9916001600160a01b039182169116600019610f23565b816103d2610639565b6001600160a01b03167f2c9bf56b214176331295043f946fec75ef4734c978c591c6d08fe7d45f9132d860405160405180910390a35050565b610413610df3565b6001600160a01b0316610424610639565b6001600160a01b03161461044a5760405162461bcd60e51b8152600401610287906117cb565b60005b6003548110156104e05760006003828154811061047a57634e487b7160e01b600052603260045260246000fd5b60009182526020822060016002909202019081015481549193506104ad926001600160a01b039283169290911690610df7565b600181015481546104cd916001600160a01b039182169116600019610f23565b50806104d881611a33565b91505061044d565b506104e9610639565b6001600160a01b03167fe9c2678ff6b16779478ca0ff73f9face6adeb21fffd1b2ffd6ee79794c51294b60405160405180910390a2565b600260015414156105435760405162461bcd60e51b8152600401610287906118b8565b6002600155610553828233610a90565b505060018055565b610563610df3565b6001600160a01b0316610574610639565b6001600160a01b03161461059a5760405162461bcd60e51b8152600401610287906117cb565b6001600160a01b038216600081815260026020526040808220805460ff191685151590811790915590519092917f966c160e1c4dbc7df8d69af4ace01e9297c3cf016397b7914971f2fbfa32672d91a35050565b6105f6610df3565b6001600160a01b0316610607610639565b6001600160a01b03161461062d5760405162461bcd60e51b8152600401610287906117cb565b6106376000610fd5565b565b6000546001600160a01b031690565b600460209081526000928352604080842090915290825290205481565b600260015414156106885760405162461bcd60e51b8152600401610287906118b8565b600260015561069a8160001933610a90565b5060018055565b600260015414156106c45760405162461bcd60e51b8152600401610287906118b8565b60026001819055336000908152602091909152604090205460ff166106fb5760405162461bcd60e51b81526004016102879061194c565b6102d2838383611032565b61070e610df3565b6001600160a01b031661071f610639565b6001600160a01b0316146107455760405162461bcd60e51b8152600401610287906117cb565b600260015414156107685760405162461bcd60e51b8152600401610287906118b8565b60026001556001600160a01b03811660009081526005602052604090205460ff16156107a65760405162461bcd60e51b815260040161028790611794565b806001600160a01b031663e7a036796040518163ffffffff1660e01b815260040160206040518083038186803b1580156107df57600080fd5b505afa1580156107f3573d6000803e3d6000fd5b505050506040513d601f19601f8201168201806040525081019061081791906114b8565b6001600160a01b031663dd62ed3e30836040518363ffffffff1660e01b8152600401610844929190611605565b60206040518083038186803b15801561085c57600080fd5b505afa158015610870573d6000803e3d6000fd5b505050506040513d601f19601f820116820180604052508101906108949190611540565b5060036040518060400160405280836001600160a01b031663e7a036796040518163ffffffff1660e01b815260040160206040518083038186803b1580156108db57600080fd5b505afa1580156108ef573d6000803e3d6000fd5b505050506040513d601f19601f8201168201806040525081019061091391906114b8565b6001600160a01b039081168252848116602092830181905284546001818101875560009687528487208651600290930201805492851673ffffffffffffffffffffffffffffffffffffffff199384161781559585015195810180549690941695909116949094179091558352600590526040909120805460ff1916821790556003546109a291610187916119f0565b6003546109b1906001906119f0565b6040516001600160a01b038316907ff5d252583cd714facf6cafc09e6ed202a7cb8f2ceec3d3b9102b12b0fe4d4be690600090a35060018055565b60026001541415610a0f5760405162461bcd60e51b8152600401610287906118b8565b6002600155610553828233611032565b610a27610df3565b6001600160a01b0316610a38610639565b6001600160a01b031614610a5e5760405162461bcd60e51b8152600401610287906117cb565b6001600160a01b038116610a845760405162461bcd60e51b81526004016102879061169a565b610a8d81610fd5565b50565b600060038481548110610ab357634e487b7160e01b600052603260045260246000fd5b60009182526020808320878452600480835260408086203387528452808620600295909502909201600181015483516342da4eb360e01b815293519197509495946001600160a01b0316936342da4eb3938084019391929190829003018186803b158015610b2057600080fd5b505afa158015610b34573d6000803e3d6000fd5b505050506040513d601f19601f82011682018060405250810190610b589190611540565b905060008360010160009054906101000a90046001600160a01b03166001600160a01b03166344a3955e6040518163ffffffff1660e01b815260040160206040518083038186803b158015610bac57600080fd5b505afa158015610bc0573d6000803e3d6000fd5b505050506040513d601f19601f82011682018060405250810190610be49190611540565b8354909150610c055760405162461bcd60e51b8152600401610287906116e0565b60008111610c255760405162461bcd60e51b815260040161028790611800565b600081838560000154610c3891906119d1565b610c4291906119b1565b905080871115610c50578096505b8615610da7576001850154604051632e1a7d4d60e01b81526000916001600160a01b031690632e1a7d4d90610c89908b90600401611990565b602060405180830381600087803b158015610ca357600080fd5b505af1158015610cb7573d6000803e3d6000fd5b505050506040513d601f19601f82011682018060405250810190610cdb9190611540565b8554909150811115610cf05760008555610d00565b8454610cfd9082906119f0565b85555b85546040516370a0823160e01b81526000916001600160a01b0316906370a0823190610d309030906004016115f1565b60206040518083038186803b158015610d4857600080fd5b505afa158015610d5c573d6000803e3d6000fd5b505050506040513d601f19601f82011682018060405250810190610d809190611540565b905088811015610d8e578098505b8654610da4906001600160a01b0316898b6112b5565b50505b87336001600160a01b03167ff279e6a1f5e320cca91135676d9cb6e44ca8a08c0b88342bcdb1144f6511b56889604051610de19190611990565b60405180910390a35050505050505050565b3390565b801580610e7f5750604051636eb1769f60e11b81526001600160a01b0384169063dd62ed3e90610e2d9030908690600401611605565b60206040518083038186803b158015610e4557600080fd5b505afa158015610e59573d6000803e3d6000fd5b505050506040513d601f19601f82011682018060405250810190610e7d9190611540565b155b610e9b5760405162461bcd60e51b8152600401610287906118ef565b610f1e8363095ea7b360e01b8484604051602401610eba929190611643565b60408051601f198184030181529190526020810180517bffffffffffffffffffffffffffffffffffffffffffffffffffffffff167fffffffff00000000000000000000000000000000000000000000000000000000909316929092179091526112d4565b505050565b600081846001600160a01b031663dd62ed3e30866040518363ffffffff1660e01b8152600401610f54929190611605565b60206040518083038186803b158015610f6c57600080fd5b505afa158015610f80573d6000803e3d6000fd5b505050506040513d601f19601f82011682018060405250810190610fa49190611540565b610fae9190611999565b9050610fcf8463095ea7b360e01b8584604051602401610eba929190611643565b50505050565b600080546001600160a01b0383811673ffffffffffffffffffffffffffffffffffffffff19831681178455604051919092169283917f8be0079c531659141344cd1fd0a4f28419497f9722a3daafe3b4186f6b6457e09190a35050565b60006003848154811061105557634e487b7160e01b600052603260045260246000fd5b600091825260208083208784526004825260408085206001600160a01b0388168652909252922060029091029091019150831561126c5781546040516370a0823160e01b81526001600160a01b039091169060009082906370a08231906110c09030906004016115f1565b60206040518083038186803b1580156110d857600080fd5b505afa1580156110ec573d6000803e3d6000fd5b505050506040513d601f19601f820116820180604052508101906111109190611540565b90506111276001600160a01b038316333089611363565b6040516370a0823160e01b815281906001600160a01b038416906370a08231906111559030906004016115f1565b60206040518083038186803b15801561116d57600080fd5b505afa158015611181573d6000803e3d6000fd5b505050506040513d601f19601f820116820180604052508101906111a59190611540565b6111af91906119f0565b9550600086116111d15760405162461bcd60e51b815260040161028790611717565b600184015460405163b6b55f2560e01b81526000916001600160a01b03169063b6b55f2590611204908a90600401611990565b602060405180830381600087803b15801561121e57600080fd5b505af1158015611232573d6000803e3d6000fd5b505050506040513d601f19601f820116820180604052508101906112569190611540565b8454909150611266908290611999565b84555050505b84836001600160a01b03167f90890809c654f11d6e72a28fa60149770a0d11ec6c92319d6ceb2bb0a4ea1a15866040516112a69190611990565b60405180910390a35050505050565b610f1e8363a9059cbb60e01b8484604051602401610eba929190611643565b6000611329826040518060400160405280602081526020017f5361666545524332303a206c6f772d6c6576656c2063616c6c206661696c6564815250856001600160a01b03166113849092919063ffffffff16565b805190915015610f1e5780806020019051810190611347919061150c565b610f1e5760405162461bcd60e51b81526004016102879061186e565b610fcf846323b872dd60e01b858585604051602401610eba9392919061161f565b6060611393848460008561139d565b90505b9392505050565b6060824710156113bf5760405162461bcd60e51b81526004016102879061174e565b6113c88561145d565b6113e45760405162461bcd60e51b815260040161028790611837565b600080866001600160a01b0316858760405161140091906115d5565b60006040518083038185875af1925050503d806000811461143d576040519150601f19603f3d011682016040523d82523d6000602084013e611442565b606091505b5091509150611452828286611463565b979650505050505050565b3b151590565b60608315611472575081611396565b8251156114825782518084602001fd5b8160405162461bcd60e51b81526004016102879190611667565b6000602082840312156114ad578081fd5b813561139681611a64565b6000602082840312156114c9578081fd5b815161139681611a64565b600080604083850312156114e6578081fd5b82356114f181611a64565b9150602083013561150181611a79565b809150509250929050565b60006020828403121561151d578081fd5b815161139681611a79565b600060208284031215611539578081fd5b5035919050565b600060208284031215611551578081fd5b5051919050565b6000806040838503121561156a578182fd5b82359150602083013561150181611a64565b6000806040838503121561158e578182fd5b50508035926020909101359150565b6000806000606084860312156115b1578081fd5b833592506020840135915060408401356115ca81611a64565b809150509250925092565b600082516115e7818460208701611a07565b9190910192915050565b6001600160a01b0391909116815260200190565b6001600160a01b0392831681529116602082015260400190565b6001600160a01b039384168152919092166020820152604081019190915260600190565b6001600160a01b03929092168252602082015260400190565b901515815260200190565b6000602082528251806020840152611686816040850160208701611a07565b601f01601f19169190910160400192915050565b60208082526026908201527f4f776e61626c653a206e6577206f776e657220697320746865207a65726f206160408201526564647265737360d01b606082015260800190565b60208082526010908201527f757365722e736861726573206973203000000000000000000000000000000000604082015260600190565b60208082526019908201527f5765206f6e6c792061636365707420616d6f756e74203e203000000000000000604082015260600190565b60208082526026908201527f416464726573733a20696e73756666696369656e742062616c616e636520666f6040820152651c8818d85b1b60d21b606082015260800190565b60208082526011908201527f4578697374696e67207374726174656779000000000000000000000000000000604082015260600190565b6020808252818101527f4f776e61626c653a2063616c6c6572206973206e6f7420746865206f776e6572604082015260600190565b60208082526010908201527f736861726573546f74616c206973203000000000000000000000000000000000604082015260600190565b6020808252601d908201527f416464726573733a2063616c6c20746f206e6f6e2d636f6e7472616374000000604082015260600190565b6020808252602a908201527f5361666545524332303a204552433230206f7065726174696f6e20646964206e6040820152691bdd081cdd58d8d9595960b21b606082015260800190565b6020808252601f908201527f5265656e7472616e637947756172643a207265656e7472616e742063616c6c00604082015260600190565b60208082526036908201527f5361666545524332303a20617070726f76652066726f6d206e6f6e2d7a65726f60408201527f20746f206e6f6e2d7a65726f20616c6c6f77616e636500000000000000000000606082015260800190565b60208082526024908201527f4f70657261746f723a2063616c6c6572206973206e6f7420746865206f70657260408201526330ba37b960e11b606082015260800190565b90815260200190565b600082198211156119ac576119ac611a4e565b500190565b6000826119cc57634e487b7160e01b81526012600452602481fd5b500490565b60008160001904831182151516156119eb576119eb611a4e565b500290565b600082821015611a0257611a02611a4e565b500390565b60005b83811015611a22578181015183820152602001611a0a565b83811115610fcf5750506000910152565b6000600019821415611a4757611a47611a4e565b5060010190565b634e487b7160e01b600052601160045260246000fd5b6001600160a01b0381168114610a8d57600080fd5b8015158114610a8d57600080fdfea2646970667358221220c3e961aa361e8326bb3cda83a45eff504d422d343ad171b2ebb50b5d994f8fcc64736f6c63430008000033",
  "devdoc": {
    "kind": "dev",
    "methods": {
      "addPool(address)": {
        "details": "Add a new want to the pool. Can only be called by the owner."
      },
      "owner()": {
        "details": "Returns the address of the current owner."
      },
      "renounceOwnership()": {
        "details": "Leaves the contract without owner. It will not be possible to call `onlyOwner` functions anymore. Can only be called by the current owner. NOTE: Renouncing ownership will leave the contract without an owner, thereby removing any functionality that is only available to the owner."
      },
      "transferOwnership(address)": {
        "details": "Transfers ownership of the contract to a new account (`newOwner`). Can only be called by the current owner."
      }
    },
    "version": 1
  },
  "userdoc": {
    "kind": "user",
    "methods": {},
    "version": 1
  },
  "storageLayout": {
    "storage": [
      {
        "astId": 7,
        "contract": "contracts/vault/VaultChef.sol:VaultChef",
        "label": "_owner",
        "offset": 0,
        "slot": "0",
        "type": "t_address"
      },
      {
        "astId": 115,
        "contract": "contracts/vault/VaultChef.sol:VaultChef",
        "label": "_status",
        "offset": 0,
        "slot": "1",
        "type": "t_uint256"
      },
      {
        "astId": 1408,
        "contract": "contracts/vault/VaultChef.sol:VaultChef",
        "label": "operators",
        "offset": 0,
        "slot": "2",
        "type": "t_mapping(t_address,t_bool)"
      },
      {
        "astId": 1479,
        "contract": "contracts/vault/VaultChef.sol:VaultChef",
        "label": "poolInfo",
        "offset": 0,
        "slot": "3",
        "type": "t_array(t_struct(PoolInfo)1475_storage)dyn_storage"
      },
      {
        "astId": 1486,
        "contract": "contracts/vault/VaultChef.sol:VaultChef",
        "label": "userInfo",
        "offset": 0,
        "slot": "4",
        "type": "t_mapping(t_uint256,t_mapping(t_address,t_struct(UserInfo)1469_storage))"
      },
      {
        "astId": 1490,
        "contract": "contracts/vault/VaultChef.sol:VaultChef",
        "label": "strats",
        "offset": 0,
        "slot": "5",
        "type": "t_mapping(t_address,t_bool)"
      }
    ],
    "types": {
      "t_address": {
        "encoding": "inplace",
        "label": "address",
        "numberOfBytes": "20"
      },
      "t_array(t_struct(PoolInfo)1475_storage)dyn_storage": {
        "base": "t_struct(PoolInfo)1475_storage",
        "encoding": "dynamic_array",
        "label": "struct VaultChef.PoolInfo[]",
        "numberOfBytes": "32"
      },
      "t_bool": {
        "encoding": "inplace",
        "label": "bool",
        "numberOfBytes": "1"
      },
      "t_contract(IERC20)222": {
        "encoding": "inplace",
        "label": "contract IERC20",
        "numberOfBytes": "20"
      },
      "t_mapping(t_address,t_bool)": {
        "encoding": "mapping",
        "key": "t_address",
        "label": "mapping(address => bool)",
        "numberOfBytes": "32",
        "value": "t_bool"
      },
      "t_mapping(t_address,t_struct(UserInfo)1469_storage)": {
        "encoding": "mapping",
        "key": "t_address",
        "label": "mapping(address => struct VaultChef.UserInfo)",
        "numberOfBytes": "32",
        "value": "t_struct(UserInfo)1469_storage"
      },
      "t_mapping(t_uint256,t_mapping(t_address,t_struct(UserInfo)1469_storage))": {
        "encoding": "mapping",
        "key": "t_uint256",
        "label": "mapping(uint256 => mapping(address => struct VaultChef.UserInfo))",
        "numberOfBytes": "32",
        "value": "t_mapping(t_address,t_struct(UserInfo)1469_storage)"
      },
      "t_struct(PoolInfo)1475_storage": {
        "encoding": "inplace",
        "label": "struct VaultChef.PoolInfo",
        "members": [
          {
            "astId": 1472,
            "contract": "contracts/vault/VaultChef.sol:VaultChef",
            "label": "want",
            "offset": 0,
            "slot": "0",
            "type": "t_contract(IERC20)222"
          },
          {
            "astId": 1474,
            "contract": "contracts/vault/VaultChef.sol:VaultChef",
            "label": "strat",
            "offset": 0,
            "slot": "1",
            "type": "t_address"
          }
        ],
        "numberOfBytes": "64"
      },
      "t_struct(UserInfo)1469_storage": {
        "encoding": "inplace",
        "label": "struct VaultChef.UserInfo",
        "members": [
          {
            "astId": 1468,
            "contract": "contracts/vault/VaultChef.sol:VaultChef",
            "label": "shares",
            "offset": 0,
            "slot": "0",
            "type": "t_uint256"
          }
        ],
        "numberOfBytes": "32"
      },
      "t_uint256": {
        "encoding": "inplace",
        "label": "uint256",
        "numberOfBytes": "32"
      }
    }
  }
}